{
  "_format": "hh-sol-artifact-1",
  "contractName": "ThreeId_ProfilePicture",
  "sourceName": "contracts/PFP.sol",
  "abi": [
    {
      "inputs": [
        {
          "internalType": "address",
          "name": "minter",
          "type": "address"
        }
      ],
      "stateMutability": "nonpayable",
      "type": "constructor"
    },
    {
      "anonymous": false,
      "inputs": [
        {
          "indexed": true,
          "internalType": "address",
          "name": "owner",
          "type": "address"
        },
        {
          "indexed": true,
          "internalType": "address",
          "name": "approved",
          "type": "address"
        },
        {
          "indexed": true,
          "internalType": "uint256",
          "name": "tokenId",
          "type": "uint256"
        }
      ],
      "name": "Approval",
      "type": "event"
    },
    {
      "anonymous": false,
      "inputs": [
        {
          "indexed": true,
          "internalType": "address",
          "name": "owner",
          "type": "address"
        },
        {
          "indexed": true,
          "internalType": "address",
          "name": "operator",
          "type": "address"
        },
        {
          "indexed": false,
          "internalType": "bool",
          "name": "approved",
          "type": "bool"
        }
      ],
      "name": "ApprovalForAll",
      "type": "event"
    },
    {
      "anonymous": false,
      "inputs": [
        {
          "indexed": true,
          "internalType": "address",
          "name": "previousOwner",
          "type": "address"
        },
        {
          "indexed": true,
          "internalType": "address",
          "name": "newOwner",
          "type": "address"
        }
      ],
      "name": "OwnershipTransferred",
      "type": "event"
    },
    {
      "anonymous": false,
      "inputs": [
        {
          "indexed": true,
          "internalType": "bytes32",
          "name": "role",
          "type": "bytes32"
        },
        {
          "indexed": true,
          "internalType": "bytes32",
          "name": "previousAdminRole",
          "type": "bytes32"
        },
        {
          "indexed": true,
          "internalType": "bytes32",
          "name": "newAdminRole",
          "type": "bytes32"
        }
      ],
      "name": "RoleAdminChanged",
      "type": "event"
    },
    {
      "anonymous": false,
      "inputs": [
        {
          "indexed": true,
          "internalType": "bytes32",
          "name": "role",
          "type": "bytes32"
        },
        {
          "indexed": true,
          "internalType": "address",
          "name": "account",
          "type": "address"
        },
        {
          "indexed": true,
          "internalType": "address",
          "name": "sender",
          "type": "address"
        }
      ],
      "name": "RoleGranted",
      "type": "event"
    },
    {
      "anonymous": false,
      "inputs": [
        {
          "indexed": true,
          "internalType": "bytes32",
          "name": "role",
          "type": "bytes32"
        },
        {
          "indexed": true,
          "internalType": "address",
          "name": "account",
          "type": "address"
        },
        {
          "indexed": true,
          "internalType": "address",
          "name": "sender",
          "type": "address"
        }
      ],
      "name": "RoleRevoked",
      "type": "event"
    },
    {
      "anonymous": false,
      "inputs": [
        {
          "indexed": true,
          "internalType": "address",
          "name": "from",
          "type": "address"
        },
        {
          "indexed": true,
          "internalType": "address",
          "name": "to",
          "type": "address"
        },
        {
          "indexed": true,
          "internalType": "uint256",
          "name": "tokenId",
          "type": "uint256"
        }
      ],
      "name": "Transfer",
      "type": "event"
    },
    {
      "inputs": [],
      "name": "DEFAULT_ADMIN_ROLE",
      "outputs": [
        {
          "internalType": "bytes32",
          "name": "",
          "type": "bytes32"
        }
      ],
      "stateMutability": "view",
      "type": "function"
    },
    {
      "inputs": [],
      "name": "OPERATOR_ROLE",
      "outputs": [
        {
          "internalType": "bytes32",
          "name": "",
          "type": "bytes32"
        }
      ],
      "stateMutability": "view",
      "type": "function"
    },
    {
      "inputs": [
        {
          "components": [
            {
              "internalType": "address",
              "name": "recipient",
              "type": "address"
            },
            {
              "internalType": "string",
              "name": "uri",
              "type": "string"
            },
            {
              "internalType": "bytes",
              "name": "signature",
              "type": "bytes"
            }
          ],
          "internalType": "struct NFTVoucher",
          "name": "voucher",
          "type": "tuple"
        }
      ],
      "name": "_recoverVoucherSigner",
      "outputs": [
        {
          "internalType": "address",
          "name": "",
          "type": "address"
        }
      ],
      "stateMutability": "pure",
      "type": "function"
    },
    {
      "inputs": [
        {
          "internalType": "address",
          "name": "to",
          "type": "address"
        },
        {
          "internalType": "uint256",
          "name": "tokenId",
          "type": "uint256"
        }
      ],
      "name": "approve",
      "outputs": [],
      "stateMutability": "nonpayable",
      "type": "function"
    },
    {
      "inputs": [
        {
          "internalType": "address",
          "name": "recipient",
          "type": "address"
        },
        {
          "components": [
            {
              "internalType": "address",
              "name": "recipient",
              "type": "address"
            },
            {
              "internalType": "string",
              "name": "uri",
              "type": "string"
            },
            {
              "internalType": "bytes",
              "name": "signature",
              "type": "bytes"
            }
          ],
          "internalType": "struct NFTVoucher",
          "name": "voucher",
          "type": "tuple"
        }
      ],
      "name": "awardPFP",
      "outputs": [
        {
          "internalType": "uint256",
          "name": "",
          "type": "uint256"
        }
      ],
      "stateMutability": "nonpayable",
      "type": "function"
    },
    {
      "inputs": [
        {
          "internalType": "address",
          "name": "owner",
          "type": "address"
        }
      ],
      "name": "balanceOf",
      "outputs": [
        {
          "internalType": "uint256",
          "name": "",
          "type": "uint256"
        }
      ],
      "stateMutability": "view",
      "type": "function"
    },
    {
      "inputs": [
        {
          "internalType": "address",
          "name": "account",
          "type": "address"
        }
      ],
      "name": "destructor",
      "outputs": [],
      "stateMutability": "nonpayable",
      "type": "function"
    },
    {
      "inputs": [
        {
          "internalType": "uint256",
          "name": "tokenId",
          "type": "uint256"
        }
      ],
      "name": "getApproved",
      "outputs": [
        {
          "internalType": "address",
          "name": "",
          "type": "address"
        }
      ],
      "stateMutability": "view",
      "type": "function"
    },
    {
      "inputs": [
        {
          "internalType": "bytes32",
          "name": "role",
          "type": "bytes32"
        }
      ],
      "name": "getRoleAdmin",
      "outputs": [
        {
          "internalType": "bytes32",
          "name": "",
          "type": "bytes32"
        }
      ],
      "stateMutability": "view",
      "type": "function"
    },
    {
      "inputs": [
        {
          "internalType": "bytes32",
          "name": "role",
          "type": "bytes32"
        },
        {
          "internalType": "address",
          "name": "account",
          "type": "address"
        }
      ],
      "name": "grantRole",
      "outputs": [],
      "stateMutability": "nonpayable",
      "type": "function"
    },
    {
      "inputs": [
        {
          "internalType": "bytes32",
          "name": "role",
          "type": "bytes32"
        },
        {
          "internalType": "address",
          "name": "account",
          "type": "address"
        }
      ],
      "name": "hasRole",
      "outputs": [
        {
          "internalType": "bool",
          "name": "",
          "type": "bool"
        }
      ],
      "stateMutability": "view",
      "type": "function"
    },
    {
      "inputs": [
        {
          "internalType": "address",
          "name": "owner",
          "type": "address"
        },
        {
          "internalType": "address",
          "name": "operator",
          "type": "address"
        }
      ],
      "name": "isApprovedForAll",
      "outputs": [
        {
          "internalType": "bool",
          "name": "",
          "type": "bool"
        }
      ],
      "stateMutability": "view",
      "type": "function"
    },
    {
      "inputs": [],
      "name": "name",
      "outputs": [
        {
          "internalType": "string",
          "name": "",
          "type": "string"
        }
      ],
      "stateMutability": "view",
      "type": "function"
    },
    {
      "inputs": [],
      "name": "nextPFP",
      "outputs": [
        {
          "internalType": "uint256",
          "name": "",
          "type": "uint256"
        }
      ],
      "stateMutability": "view",
      "type": "function"
    },
    {
      "inputs": [],
      "name": "owner",
      "outputs": [
        {
          "internalType": "address",
          "name": "",
          "type": "address"
        }
      ],
      "stateMutability": "view",
      "type": "function"
    },
    {
      "inputs": [
        {
          "internalType": "uint256",
          "name": "tokenId",
          "type": "uint256"
        }
      ],
      "name": "ownerOf",
      "outputs": [
        {
          "internalType": "address",
          "name": "",
          "type": "address"
        }
      ],
      "stateMutability": "view",
      "type": "function"
    },
    {
      "inputs": [],
      "name": "renounceOwnership",
      "outputs": [],
      "stateMutability": "nonpayable",
      "type": "function"
    },
    {
      "inputs": [
        {
          "internalType": "bytes32",
          "name": "role",
          "type": "bytes32"
        },
        {
          "internalType": "address",
          "name": "account",
          "type": "address"
        }
      ],
      "name": "renounceRole",
      "outputs": [],
      "stateMutability": "nonpayable",
      "type": "function"
    },
    {
      "inputs": [
        {
          "internalType": "bytes32",
          "name": "role",
          "type": "bytes32"
        },
        {
          "internalType": "address",
          "name": "account",
          "type": "address"
        }
      ],
      "name": "revokeRole",
      "outputs": [],
      "stateMutability": "nonpayable",
      "type": "function"
    },
    {
      "inputs": [
        {
          "internalType": "address",
          "name": "from",
          "type": "address"
        },
        {
          "internalType": "address",
          "name": "to",
          "type": "address"
        },
        {
          "internalType": "uint256",
          "name": "tokenId",
          "type": "uint256"
        }
      ],
      "name": "safeTransferFrom",
      "outputs": [],
      "stateMutability": "nonpayable",
      "type": "function"
    },
    {
      "inputs": [
        {
          "internalType": "address",
          "name": "from",
          "type": "address"
        },
        {
          "internalType": "address",
          "name": "to",
          "type": "address"
        },
        {
          "internalType": "uint256",
          "name": "tokenId",
          "type": "uint256"
        },
        {
          "internalType": "bytes",
          "name": "data",
          "type": "bytes"
        }
      ],
      "name": "safeTransferFrom",
      "outputs": [],
      "stateMutability": "nonpayable",
      "type": "function"
    },
    {
      "inputs": [
        {
          "internalType": "address",
          "name": "operator",
          "type": "address"
        },
        {
          "internalType": "bool",
          "name": "approved",
          "type": "bool"
        }
      ],
      "name": "setApprovalForAll",
      "outputs": [],
      "stateMutability": "nonpayable",
      "type": "function"
    },
    {
      "inputs": [
        {
          "internalType": "bytes4",
          "name": "interfaceId",
          "type": "bytes4"
        }
      ],
      "name": "supportsInterface",
      "outputs": [
        {
          "internalType": "bool",
          "name": "",
          "type": "bool"
        }
      ],
      "stateMutability": "view",
      "type": "function"
    },
    {
      "inputs": [],
      "name": "symbol",
      "outputs": [
        {
          "internalType": "string",
          "name": "",
          "type": "string"
        }
      ],
      "stateMutability": "view",
      "type": "function"
    },
    {
      "inputs": [
        {
          "internalType": "uint256",
          "name": "tokenId",
          "type": "uint256"
        }
      ],
      "name": "tokenURI",
      "outputs": [
        {
          "internalType": "string",
          "name": "",
          "type": "string"
        }
      ],
      "stateMutability": "view",
      "type": "function"
    },
    {
      "inputs": [
        {
          "internalType": "address",
          "name": "from",
          "type": "address"
        },
        {
          "internalType": "address",
          "name": "to",
          "type": "address"
        },
        {
          "internalType": "uint256",
          "name": "tokenId",
          "type": "uint256"
        }
      ],
      "name": "transferFrom",
      "outputs": [],
      "stateMutability": "nonpayable",
      "type": "function"
    },
    {
      "inputs": [
        {
          "internalType": "address",
          "name": "newOwner",
          "type": "address"
        }
      ],
      "name": "transferOwnership",
      "outputs": [],
      "stateMutability": "nonpayable",
      "type": "function"
    }
  ],
  "bytecode": "0x60806040523480156200001157600080fd5b5060405162004a2338038062004a238339818101604052810190620000379190620004cc565b6040518060400160405280601381526020017f3349442050726f66696c652050696374757265000000000000000000000000008152506040518060400160405280600381526020017f50465000000000000000000000000000000000000000000000000000000000008152508160009080519060200190620000bb929190620003b2565b508060019080519060200190620000d4929190620003b2565b505050620000f7620000eb6200017160201b60201c565b6200017960201b60201c565b620001297f97667070c54ef182b0f5858b034beac1b6f3089aa2d3188bb1e8929f4fa9b929826200023f60201b60201c565b80600a60006101000a81548173ffffffffffffffffffffffffffffffffffffffff021916908373ffffffffffffffffffffffffffffffffffffffff1602179055505062000563565b600033905090565b6000600860009054906101000a900473ffffffffffffffffffffffffffffffffffffffff16905081600860006101000a81548173ffffffffffffffffffffffffffffffffffffffff021916908373ffffffffffffffffffffffffffffffffffffffff1602179055508173ffffffffffffffffffffffffffffffffffffffff168173ffffffffffffffffffffffffffffffffffffffff167f8be0079c531659141344cd1fd0a4f28419497f9722a3daafe3b4186f6b6457e060405160405180910390a35050565b6200025182826200025560201b60201c565b5050565b6200026782826200034760201b60201c565b620003435760016007600084815260200190815260200160002060000160008373ffffffffffffffffffffffffffffffffffffffff1673ffffffffffffffffffffffffffffffffffffffff16815260200190815260200160002060006101000a81548160ff021916908315150217905550620002e86200017160201b60201c565b73ffffffffffffffffffffffffffffffffffffffff168173ffffffffffffffffffffffffffffffffffffffff16837f2f8788117e7eff1d82e926ec794901d17c78024a50270940304540a733656f0d60405160405180910390a45b5050565b60006007600084815260200190815260200160002060000160008373ffffffffffffffffffffffffffffffffffffffff1673ffffffffffffffffffffffffffffffffffffffff16815260200190815260200160002060009054906101000a900460ff16905092915050565b828054620003c0906200052d565b90600052602060002090601f016020900481019282620003e4576000855562000430565b82601f10620003ff57805160ff191683800117855562000430565b8280016001018555821562000430579182015b828111156200042f57825182559160200191906001019062000412565b5b5090506200043f919062000443565b5090565b5b808211156200045e57600081600090555060010162000444565b5090565b600080fd5b600073ffffffffffffffffffffffffffffffffffffffff82169050919050565b6000620004948262000467565b9050919050565b620004a68162000487565b8114620004b257600080fd5b50565b600081519050620004c6816200049b565b92915050565b600060208284031215620004e557620004e462000462565b5b6000620004f584828501620004b5565b91505092915050565b7f4e487b7100000000000000000000000000000000000000000000000000000000600052602260045260246000fd5b600060028204905060018216806200054657607f821691505b602082108114156200055d576200055c620004fe565b5b50919050565b6144b080620005736000396000f3fe608060405234801561001057600080fd5b50600436106101a95760003560e01c8063731bd86e116100f9578063c87b56dd11610097578063e641dae811610071578063e641dae8146104ca578063e985e9c5146104fa578063f2fde38b1461052a578063f5b541a614610546576101a9565b8063c87b56dd14610462578063d547741f14610492578063db7b2716146104ae576101a9565b806395d89b41116100d357806395d89b41146103ee578063a217fddf1461040c578063a22cb4651461042a578063b88d4fde14610446576101a9565b8063731bd86e146103825780638da5cb5b146103a057806391d14854146103be576101a9565b8063248a9ca31161016657806342842e0e1161014057806342842e0e146102fc5780636352211e1461031857806370a0823114610348578063715018a614610378576101a9565b8063248a9ca3146102945780632f2ff15d146102c457806336568abe146102e0576101a9565b806301ffc9a7146101ae57806306fdde03146101de578063081812fc146101fc578063095ea7b31461022c5780631ab600371461024857806323b872dd14610278575b600080fd5b6101c860048036038101906101c391906129e7565b610564565b6040516101d59190612a2f565b60405180910390f35b6101e6610576565b6040516101f39190612ae3565b60405180910390f35b61021660048036038101906102119190612b3b565b610608565b6040516102239190612ba9565b60405180910390f35b61024660048036038101906102419190612bf0565b61064e565b005b610262600480360381019061025d9190612eac565b610766565b60405161026f9190612f17565b60405180910390f35b610292600480360381019061028d9190612f32565b61088a565b005b6102ae60048036038101906102a99190612fbb565b6108ea565b6040516102bb9190612ff7565b60405180910390f35b6102de60048036038101906102d99190613012565b61090a565b005b6102fa60048036038101906102f59190613012565b61092b565b005b61031660048036038101906103119190612f32565b6109ae565b005b610332600480360381019061032d9190612b3b565b6109ce565b60405161033f9190612ba9565b60405180910390f35b610362600480360381019061035d9190613052565b610a80565b60405161036f9190612f17565b60405180910390f35b610380610b38565b005b61038a610b4c565b6040516103979190612f17565b60405180910390f35b6103a8610b5d565b6040516103b59190612ba9565b60405180910390f35b6103d860048036038101906103d39190613012565b610b87565b6040516103e59190612a2f565b60405180910390f35b6103f6610bf2565b6040516104039190612ae3565b60405180910390f35b610414610c84565b6040516104219190612ff7565b60405180910390f35b610444600480360381019061043f91906130ab565b610c8b565b005b610460600480360381019061045b91906130eb565b610ca1565b005b61047c60048036038101906104779190612b3b565b610d03565b6040516104899190612ae3565b60405180910390f35b6104ac60048036038101906104a79190613012565b610e16565b005b6104c860048036038101906104c39190613052565b610e37565b005b6104e460048036038101906104df919061316e565b610ec1565b6040516104f19190612ba9565b60405180910390f35b610514600480360381019061050f91906131b7565b610f1b565b6040516105219190612a2f565b60405180910390f35b610544600480360381019061053f9190613052565b610faf565b005b61054e611033565b60405161055b9190612ff7565b60405180910390f35b600061056f82611057565b9050919050565b60606000805461058590613226565b80601f01602080910402602001604051908101604052809291908181526020018280546105b190613226565b80156105fe5780601f106105d3576101008083540402835291602001916105fe565b820191906000526020600020905b8154815290600101906020018083116105e157829003601f168201915b5050505050905090565b6000610613826110d1565b6004600083815260200190815260200160002060009054906101000a900473ffffffffffffffffffffffffffffffffffffffff169050919050565b6000610659826109ce565b90508073ffffffffffffffffffffffffffffffffffffffff168373ffffffffffffffffffffffffffffffffffffffff1614156106ca576040517f08c379a00000000000000000000000000000000000000000000000000000000081526004016106c1906132ca565b60405180910390fd5b8073ffffffffffffffffffffffffffffffffffffffff166106e961111c565b73ffffffffffffffffffffffffffffffffffffffff16148061071857506107178161071261111c565b610f1b565b5b610757576040517f08c379a000000000000000000000000000000000000000000000000000000000815260040161074e9061335c565b60405180910390fd5b6107618383611124565b505050565b60008061077283610ec1565b905061079e7f97667070c54ef182b0f5858b034beac1b6f3089aa2d3188bb1e8929f4fa9b92982610b87565b6107dd576040517f08c379a00000000000000000000000000000000000000000000000000000000081526004016107d4906133ee565b60405180910390fd5b826000015173ffffffffffffffffffffffffffffffffffffffff168473ffffffffffffffffffffffffffffffffffffffff161461084f576040517f08c379a00000000000000000000000000000000000000000000000000000000081526004016108469061345a565b60405180910390fd5b600061085b60096111dd565b905061086785826111eb565b610875818560200151611209565b61087f600961127d565b809250505092915050565b61089b61089561111c565b82611293565b6108da576040517f08c379a00000000000000000000000000000000000000000000000000000000081526004016108d1906134ec565b60405180910390fd5b6108e5838383611328565b505050565b600060076000838152602001908152602001600020600101549050919050565b610913826108ea565b61091c8161158f565b61092683836115a3565b505050565b61093361111c565b73ffffffffffffffffffffffffffffffffffffffff168173ffffffffffffffffffffffffffffffffffffffff16146109a0576040517f08c379a00000000000000000000000000000000000000000000000000000000081526004016109979061357e565b60405180910390fd5b6109aa8282611684565b5050565b6109c983838360405180602001604052806000815250610ca1565b505050565b6000806002600084815260200190815260200160002060009054906101000a900473ffffffffffffffffffffffffffffffffffffffff169050600073ffffffffffffffffffffffffffffffffffffffff168173ffffffffffffffffffffffffffffffffffffffff161415610a77576040517f08c379a0000000000000000000000000000000000000000000000000000000008152600401610a6e906135ea565b60405180910390fd5b80915050919050565b60008073ffffffffffffffffffffffffffffffffffffffff168273ffffffffffffffffffffffffffffffffffffffff161415610af1576040517f08c379a0000000000000000000000000000000000000000000000000000000008152600401610ae89061367c565b60405180910390fd5b600360008373ffffffffffffffffffffffffffffffffffffffff1673ffffffffffffffffffffffffffffffffffffffff168152602001908152602001600020549050919050565b610b40611766565b610b4a60006117e4565b565b6000610b5860096111dd565b905090565b6000600860009054906101000a900473ffffffffffffffffffffffffffffffffffffffff16905090565b60006007600084815260200190815260200160002060000160008373ffffffffffffffffffffffffffffffffffffffff1673ffffffffffffffffffffffffffffffffffffffff16815260200190815260200160002060009054906101000a900460ff16905092915050565b606060018054610c0190613226565b80601f0160208091040260200160405190810160405280929190818152602001828054610c2d90613226565b8015610c7a5780601f10610c4f57610100808354040283529160200191610c7a565b820191906000526020600020905b815481529060010190602001808311610c5d57829003601f168201915b5050505050905090565b6000801b81565b610c9d610c9661111c565b83836118aa565b5050565b610cb2610cac61111c565b83611293565b610cf1576040517f08c379a0000000000000000000000000000000000000000000000000000000008152600401610ce8906134ec565b60405180910390fd5b610cfd84848484611a17565b50505050565b6060610d0e826110d1565b6000600660008481526020019081526020016000208054610d2e90613226565b80601f0160208091040260200160405190810160405280929190818152602001828054610d5a90613226565b8015610da75780601f10610d7c57610100808354040283529160200191610da7565b820191906000526020600020905b815481529060010190602001808311610d8a57829003601f168201915b505050505090506000610db8611a73565b9050600081511415610dce578192505050610e11565b600082511115610e03578082604051602001610deb9291906136d8565b60405160208183030381529060405292505050610e11565b610e0c84611a8a565b925050505b919050565b610e1f826108ea565b610e288161158f565b610e328383611684565b505050565b610e3f611766565b610e697f97667070c54ef182b0f5858b034beac1b6f3089aa2d3188bb1e8929f4fa9b92982610b87565b610ea8576040517f08c379a0000000000000000000000000000000000000000000000000000000008152600401610e9f9061376e565b60405180910390fd5b8073ffffffffffffffffffffffffffffffffffffffff16ff5b60008082600001518360200151604051602001610edf9291906137d6565b6040516020818303038152906040528051906020012090506000610f0282611af2565b9050610f12818560400151611b22565b92505050919050565b6000600560008473ffffffffffffffffffffffffffffffffffffffff1673ffffffffffffffffffffffffffffffffffffffff16815260200190815260200160002060008373ffffffffffffffffffffffffffffffffffffffff1673ffffffffffffffffffffffffffffffffffffffff16815260200190815260200160002060009054906101000a900460ff16905092915050565b610fb7611766565b600073ffffffffffffffffffffffffffffffffffffffff168173ffffffffffffffffffffffffffffffffffffffff161415611027576040517f08c379a000000000000000000000000000000000000000000000000000000000815260040161101e90613870565b60405180910390fd5b611030816117e4565b50565b7f97667070c54ef182b0f5858b034beac1b6f3089aa2d3188bb1e8929f4fa9b92981565b60007f7965db0b000000000000000000000000000000000000000000000000000000007bffffffffffffffffffffffffffffffffffffffffffffffffffffffff1916827bffffffffffffffffffffffffffffffffffffffffffffffffffffffff191614806110ca57506110c982611b49565b5b9050919050565b6110da81611c2b565b611119576040517f08c379a0000000000000000000000000000000000000000000000000000000008152600401611110906135ea565b60405180910390fd5b50565b600033905090565b816004600083815260200190815260200160002060006101000a81548173ffffffffffffffffffffffffffffffffffffffff021916908373ffffffffffffffffffffffffffffffffffffffff160217905550808273ffffffffffffffffffffffffffffffffffffffff16611197836109ce565b73ffffffffffffffffffffffffffffffffffffffff167f8c5be1e5ebec7d5bd14f71427d1e84f3dd0314c0f7b2291e5b200ac8c7c3b92560405160405180910390a45050565b600081600001549050919050565b611205828260405180602001604052806000815250611c97565b5050565b61121282611c2b565b611251576040517f08c379a000000000000000000000000000000000000000000000000000000000815260040161124890613902565b60405180910390fd5b806006600084815260200190815260200160002090805190602001906112789291906128d8565b505050565b6001816000016000828254019250508190555050565b60008061129f836109ce565b90508073ffffffffffffffffffffffffffffffffffffffff168473ffffffffffffffffffffffffffffffffffffffff1614806112e157506112e08185610f1b565b5b8061131f57508373ffffffffffffffffffffffffffffffffffffffff1661130784610608565b73ffffffffffffffffffffffffffffffffffffffff16145b91505092915050565b8273ffffffffffffffffffffffffffffffffffffffff16611348826109ce565b73ffffffffffffffffffffffffffffffffffffffff161461139e576040517f08c379a000000000000000000000000000000000000000000000000000000000815260040161139590613994565b60405180910390fd5b600073ffffffffffffffffffffffffffffffffffffffff168273ffffffffffffffffffffffffffffffffffffffff16141561140e576040517f08c379a000000000000000000000000000000000000000000000000000000000815260040161140590613a26565b60405180910390fd5b611419838383611cf2565b611424600082611124565b6001600360008573ffffffffffffffffffffffffffffffffffffffff1673ffffffffffffffffffffffffffffffffffffffff16815260200190815260200160002060008282546114749190613a75565b925050819055506001600360008473ffffffffffffffffffffffffffffffffffffffff1673ffffffffffffffffffffffffffffffffffffffff16815260200190815260200160002060008282546114cb9190613aa9565b92505081905550816002600083815260200190815260200160002060006101000a81548173ffffffffffffffffffffffffffffffffffffffff021916908373ffffffffffffffffffffffffffffffffffffffff160217905550808273ffffffffffffffffffffffffffffffffffffffff168473ffffffffffffffffffffffffffffffffffffffff167fddf252ad1be2c89b69c2b068fc378daa952ba7f163c4a11628f55a4df523b3ef60405160405180910390a461158a838383611d71565b505050565b6115a08161159b61111c565b611d76565b50565b6115ad8282610b87565b6116805760016007600084815260200190815260200160002060000160008373ffffffffffffffffffffffffffffffffffffffff1673ffffffffffffffffffffffffffffffffffffffff16815260200190815260200160002060006101000a81548160ff02191690831515021790555061162561111c565b73ffffffffffffffffffffffffffffffffffffffff168173ffffffffffffffffffffffffffffffffffffffff16837f2f8788117e7eff1d82e926ec794901d17c78024a50270940304540a733656f0d60405160405180910390a45b5050565b61168e8282610b87565b156117625760006007600084815260200190815260200160002060000160008373ffffffffffffffffffffffffffffffffffffffff1673ffffffffffffffffffffffffffffffffffffffff16815260200190815260200160002060006101000a81548160ff02191690831515021790555061170761111c565b73ffffffffffffffffffffffffffffffffffffffff168173ffffffffffffffffffffffffffffffffffffffff16837ff6391f5c32d9c69d2a47ea670b442974b53935d1edc7fd64eb21e047a839171b60405160405180910390a45b5050565b61176e61111c565b73ffffffffffffffffffffffffffffffffffffffff1661178c610b5d565b73ffffffffffffffffffffffffffffffffffffffff16146117e2576040517f08c379a00000000000000000000000000000000000000000000000000000000081526004016117d990613b4b565b60405180910390fd5b565b6000600860009054906101000a900473ffffffffffffffffffffffffffffffffffffffff16905081600860006101000a81548173ffffffffffffffffffffffffffffffffffffffff021916908373ffffffffffffffffffffffffffffffffffffffff1602179055508173ffffffffffffffffffffffffffffffffffffffff168173ffffffffffffffffffffffffffffffffffffffff167f8be0079c531659141344cd1fd0a4f28419497f9722a3daafe3b4186f6b6457e060405160405180910390a35050565b8173ffffffffffffffffffffffffffffffffffffffff168373ffffffffffffffffffffffffffffffffffffffff161415611919576040517f08c379a000000000000000000000000000000000000000000000000000000000815260040161191090613bb7565b60405180910390fd5b80600560008573ffffffffffffffffffffffffffffffffffffffff1673ffffffffffffffffffffffffffffffffffffffff16815260200190815260200160002060008473ffffffffffffffffffffffffffffffffffffffff1673ffffffffffffffffffffffffffffffffffffffff16815260200190815260200160002060006101000a81548160ff0219169083151502179055508173ffffffffffffffffffffffffffffffffffffffff168373ffffffffffffffffffffffffffffffffffffffff167f17307eab39ab6107e8899845ad3d59bd9653f200f220920489ca2b5937696c3183604051611a0a9190612a2f565b60405180910390a3505050565b611a22848484611328565b611a2e84848484611e13565b611a6d576040517f08c379a0000000000000000000000000000000000000000000000000000000008152600401611a6490613c49565b60405180910390fd5b50505050565b606060405180602001604052806000815250905090565b6060611a95826110d1565b6000611a9f611a73565b90506000815111611abf5760405180602001604052806000815250611aea565b80611ac984611f9b565b604051602001611ada9291906136d8565b6040516020818303038152906040525b915050919050565b600081604051602001611b059190613cd6565b604051602081830303815290604052805190602001209050919050565b6000806000611b3185856120fc565b91509150611b3e8161214e565b819250505092915050565b60007f80ac58cd000000000000000000000000000000000000000000000000000000007bffffffffffffffffffffffffffffffffffffffffffffffffffffffff1916827bffffffffffffffffffffffffffffffffffffffffffffffffffffffff19161480611c1457507f5b5e139f000000000000000000000000000000000000000000000000000000007bffffffffffffffffffffffffffffffffffffffffffffffffffffffff1916827bffffffffffffffffffffffffffffffffffffffffffffffffffffffff1916145b80611c245750611c2382612323565b5b9050919050565b60008073ffffffffffffffffffffffffffffffffffffffff166002600084815260200190815260200160002060009054906101000a900473ffffffffffffffffffffffffffffffffffffffff1673ffffffffffffffffffffffffffffffffffffffff1614159050919050565b611ca1838361238d565b611cae6000848484611e13565b611ced576040517f08c379a0000000000000000000000000000000000000000000000000000000008152600401611ce490613c49565b60405180910390fd5b505050565b600073ffffffffffffffffffffffffffffffffffffffff168373ffffffffffffffffffffffffffffffffffffffff1614611d61576040517f08c379a0000000000000000000000000000000000000000000000000000000008152600401611d5890613d48565b60405180910390fd5b611d6c838383612567565b505050565b505050565b611d808282610b87565b611e0f57611da58173ffffffffffffffffffffffffffffffffffffffff16601461256c565b611db38360001c602061256c565b604051602001611dc4929190613e00565b6040516020818303038152906040526040517f08c379a0000000000000000000000000000000000000000000000000000000008152600401611e069190612ae3565b60405180910390fd5b5050565b6000611e348473ffffffffffffffffffffffffffffffffffffffff166127a8565b15611f8e578373ffffffffffffffffffffffffffffffffffffffff1663150b7a02611e5d61111c565b8786866040518563ffffffff1660e01b8152600401611e7f9493929190613e8f565b6020604051808303816000875af1925050508015611ebb57506040513d601f19601f82011682018060405250810190611eb89190613ef0565b60015b611f3e573d8060008114611eeb576040519150601f19603f3d011682016040523d82523d6000602084013e611ef0565b606091505b50600081511415611f36576040517f08c379a0000000000000000000000000000000000000000000000000000000008152600401611f2d90613c49565b60405180910390fd5b805181602001fd5b63150b7a0260e01b7bffffffffffffffffffffffffffffffffffffffffffffffffffffffff1916817bffffffffffffffffffffffffffffffffffffffffffffffffffffffff191614915050611f93565b600190505b949350505050565b60606000821415611fe3576040518060400160405280600181526020017f300000000000000000000000000000000000000000000000000000000000000081525090506120f7565b600082905060005b60008214612015578080611ffe90613f1d565b915050600a8261200e9190613f95565b9150611feb565b60008167ffffffffffffffff81111561203157612030612c35565b5b6040519080825280601f01601f1916602001820160405280156120635781602001600182028036833780820191505090505b5090505b600085146120f05760018261207c9190613a75565b9150600a8561208b9190613fc6565b60306120979190613aa9565b60f81b8183815181106120ad576120ac613ff7565b5b60200101907effffffffffffffffffffffffffffffffffffffffffffffffffffffffffffff1916908160001a905350600a856120e99190613f95565b9450612067565b8093505050505b919050565b60008060418351141561213e5760008060006020860151925060408601519150606086015160001a9050612132878285856127cb565b94509450505050612147565b60006002915091505b9250929050565b6000600481111561216257612161614026565b5b81600481111561217557612174614026565b5b141561218057612320565b6001600481111561219457612193614026565b5b8160048111156121a7576121a6614026565b5b14156121e8576040517f08c379a00000000000000000000000000000000000000000000000000000000081526004016121df906140a1565b60405180910390fd5b600260048111156121fc576121fb614026565b5b81600481111561220f5761220e614026565b5b1415612250576040517f08c379a00000000000000000000000000000000000000000000000000000000081526004016122479061410d565b60405180910390fd5b6003600481111561226457612263614026565b5b81600481111561227757612276614026565b5b14156122b8576040517f08c379a00000000000000000000000000000000000000000000000000000000081526004016122af9061419f565b60405180910390fd5b6004808111156122cb576122ca614026565b5b8160048111156122de576122dd614026565b5b141561231f576040517f08c379a000000000000000000000000000000000000000000000000000000000815260040161231690614231565b60405180910390fd5b5b50565b60007f01ffc9a7000000000000000000000000000000000000000000000000000000007bffffffffffffffffffffffffffffffffffffffffffffffffffffffff1916827bffffffffffffffffffffffffffffffffffffffffffffffffffffffff1916149050919050565b600073ffffffffffffffffffffffffffffffffffffffff168273ffffffffffffffffffffffffffffffffffffffff1614156123fd576040517f08c379a00000000000000000000000000000000000000000000000000000000081526004016123f49061429d565b60405180910390fd5b61240681611c2b565b15612446576040517f08c379a000000000000000000000000000000000000000000000000000000000815260040161243d90614309565b60405180910390fd5b61245260008383611cf2565b6001600360008473ffffffffffffffffffffffffffffffffffffffff1673ffffffffffffffffffffffffffffffffffffffff16815260200190815260200160002060008282546124a29190613aa9565b92505081905550816002600083815260200190815260200160002060006101000a81548173ffffffffffffffffffffffffffffffffffffffff021916908373ffffffffffffffffffffffffffffffffffffffff160217905550808273ffffffffffffffffffffffffffffffffffffffff16600073ffffffffffffffffffffffffffffffffffffffff167fddf252ad1be2c89b69c2b068fc378daa952ba7f163c4a11628f55a4df523b3ef60405160405180910390a461256360008383611d71565b5050565b505050565b60606000600283600261257f9190614329565b6125899190613aa9565b67ffffffffffffffff8111156125a2576125a1612c35565b5b6040519080825280601f01601f1916602001820160405280156125d45781602001600182028036833780820191505090505b5090507f30000000000000000000000000000000000000000000000000000000000000008160008151811061260c5761260b613ff7565b5b60200101907effffffffffffffffffffffffffffffffffffffffffffffffffffffffffffff1916908160001a9053507f7800000000000000000000000000000000000000000000000000000000000000816001815181106126705761266f613ff7565b5b60200101907effffffffffffffffffffffffffffffffffffffffffffffffffffffffffffff1916908160001a905350600060018460026126b09190614329565b6126ba9190613aa9565b90505b600181111561275a577f3031323334353637383961626364656600000000000000000000000000000000600f8616601081106126fc576126fb613ff7565b5b1a60f81b82828151811061271357612712613ff7565b5b60200101907effffffffffffffffffffffffffffffffffffffffffffffffffffffffffffff1916908160001a905350600485901c94508061275390614383565b90506126bd565b506000841461279e576040517f08c379a0000000000000000000000000000000000000000000000000000000008152600401612795906143f9565b60405180910390fd5b8091505092915050565b6000808273ffffffffffffffffffffffffffffffffffffffff163b119050919050565b6000807f7fffffffffffffffffffffffffffffff5d576e7357a4501ddfe92f46681b20a08360001c11156128065760006003915091506128cf565b601b8560ff161415801561281e5750601c8560ff1614155b156128305760006004915091506128cf565b6000600187878787604051600081526020016040526040516128559493929190614435565b6020604051602081039080840390855afa158015612877573d6000803e3d6000fd5b505050602060405103519050600073ffffffffffffffffffffffffffffffffffffffff168173ffffffffffffffffffffffffffffffffffffffff1614156128c6576000600192509250506128cf565b80600092509250505b94509492505050565b8280546128e490613226565b90600052602060002090601f016020900481019282612906576000855561294d565b82601f1061291f57805160ff191683800117855561294d565b8280016001018555821561294d579182015b8281111561294c578251825591602001919060010190612931565b5b50905061295a919061295e565b5090565b5b8082111561297757600081600090555060010161295f565b5090565b6000604051905090565b600080fd5b600080fd5b60007fffffffff0000000000000000000000000000000000000000000000000000000082169050919050565b6129c48161298f565b81146129cf57600080fd5b50565b6000813590506129e1816129bb565b92915050565b6000602082840312156129fd576129fc612985565b5b6000612a0b848285016129d2565b91505092915050565b60008115159050919050565b612a2981612a14565b82525050565b6000602082019050612a446000830184612a20565b92915050565b600081519050919050565b600082825260208201905092915050565b60005b83811015612a84578082015181840152602081019050612a69565b83811115612a93576000848401525b50505050565b6000601f19601f8301169050919050565b6000612ab582612a4a565b612abf8185612a55565b9350612acf818560208601612a66565b612ad881612a99565b840191505092915050565b60006020820190508181036000830152612afd8184612aaa565b905092915050565b6000819050919050565b612b1881612b05565b8114612b2357600080fd5b50565b600081359050612b3581612b0f565b92915050565b600060208284031215612b5157612b50612985565b5b6000612b5f84828501612b26565b91505092915050565b600073ffffffffffffffffffffffffffffffffffffffff82169050919050565b6000612b9382612b68565b9050919050565b612ba381612b88565b82525050565b6000602082019050612bbe6000830184612b9a565b92915050565b612bcd81612b88565b8114612bd857600080fd5b50565b600081359050612bea81612bc4565b92915050565b60008060408385031215612c0757612c06612985565b5b6000612c1585828601612bdb565b9250506020612c2685828601612b26565b9150509250929050565b600080fd5b7f4e487b7100000000000000000000000000000000000000000000000000000000600052604160045260246000fd5b612c6d82612a99565b810181811067ffffffffffffffff82111715612c8c57612c8b612c35565b5b80604052505050565b6000612c9f61297b565b9050612cab8282612c64565b919050565b600080fd5b600080fd5b600080fd5b600067ffffffffffffffff821115612cda57612cd9612c35565b5b612ce382612a99565b9050602081019050919050565b82818337600083830152505050565b6000612d12612d0d84612cbf565b612c95565b905082815260208101848484011115612d2e57612d2d612cba565b5b612d39848285612cf0565b509392505050565b600082601f830112612d5657612d55612cb5565b5b8135612d66848260208601612cff565b91505092915050565b600067ffffffffffffffff821115612d8a57612d89612c35565b5b612d9382612a99565b9050602081019050919050565b6000612db3612dae84612d6f565b612c95565b905082815260208101848484011115612dcf57612dce612cba565b5b612dda848285612cf0565b509392505050565b600082601f830112612df757612df6612cb5565b5b8135612e07848260208601612da0565b91505092915050565b600060608284031215612e2657612e25612c30565b5b612e306060612c95565b90506000612e4084828501612bdb565b600083015250602082013567ffffffffffffffff811115612e6457612e63612cb0565b5b612e7084828501612d41565b602083015250604082013567ffffffffffffffff811115612e9457612e93612cb0565b5b612ea084828501612de2565b60408301525092915050565b60008060408385031215612ec357612ec2612985565b5b6000612ed185828601612bdb565b925050602083013567ffffffffffffffff811115612ef257612ef161298a565b5b612efe85828601612e10565b9150509250929050565b612f1181612b05565b82525050565b6000602082019050612f2c6000830184612f08565b92915050565b600080600060608486031215612f4b57612f4a612985565b5b6000612f5986828701612bdb565b9350506020612f6a86828701612bdb565b9250506040612f7b86828701612b26565b9150509250925092565b6000819050919050565b612f9881612f85565b8114612fa357600080fd5b50565b600081359050612fb581612f8f565b92915050565b600060208284031215612fd157612fd0612985565b5b6000612fdf84828501612fa6565b91505092915050565b612ff181612f85565b82525050565b600060208201905061300c6000830184612fe8565b92915050565b6000806040838503121561302957613028612985565b5b600061303785828601612fa6565b925050602061304885828601612bdb565b9150509250929050565b60006020828403121561306857613067612985565b5b600061307684828501612bdb565b91505092915050565b61308881612a14565b811461309357600080fd5b50565b6000813590506130a58161307f565b92915050565b600080604083850312156130c2576130c1612985565b5b60006130d085828601612bdb565b92505060206130e185828601613096565b9150509250929050565b6000806000806080858703121561310557613104612985565b5b600061311387828801612bdb565b945050602061312487828801612bdb565b935050604061313587828801612b26565b925050606085013567ffffffffffffffff8111156131565761315561298a565b5b61316287828801612de2565b91505092959194509250565b60006020828403121561318457613183612985565b5b600082013567ffffffffffffffff8111156131a2576131a161298a565b5b6131ae84828501612e10565b91505092915050565b600080604083850312156131ce576131cd612985565b5b60006131dc85828601612bdb565b92505060206131ed85828601612bdb565b9150509250929050565b7f4e487b7100000000000000000000000000000000000000000000000000000000600052602260045260246000fd5b6000600282049050600182168061323e57607f821691505b60208210811415613252576132516131f7565b5b50919050565b7f4552433732313a20617070726f76616c20746f2063757272656e74206f776e6560008201527f7200000000000000000000000000000000000000000000000000000000000000602082015250565b60006132b4602183612a55565b91506132bf82613258565b604082019050919050565b600060208201905081810360008301526132e3816132a7565b9050919050565b7f4552433732313a20617070726f76652063616c6c6572206973206e6f7420746f60008201527f6b656e206f776e6572206e6f7220617070726f76656420666f7220616c6c0000602082015250565b6000613346603e83612a55565b9150613351826132ea565b604082019050919050565b6000602082019050818103600083015261337581613339565b9050919050565b7f5369676e617475726520696e76616c6964206f7220756e617574686f72697a6560008201527f6421000000000000000000000000000000000000000000000000000000000000602082015250565b60006133d8602283612a55565b91506133e38261337c565b604082019050919050565b60006020820190508181036000830152613407816133cb565b9050919050565b7f496e76616c696420726563697069656e74210000000000000000000000000000600082015250565b6000613444601283612a55565b915061344f8261340e565b602082019050919050565b6000602082019050818103600083015261347381613437565b9050919050565b7f4552433732313a2063616c6c6572206973206e6f7420746f6b656e206f776e6560008201527f72206e6f7220617070726f766564000000000000000000000000000000000000602082015250565b60006134d6602e83612a55565b91506134e18261347a565b604082019050919050565b60006020820190508181036000830152613505816134c9565b9050919050565b7f416363657373436f6e74726f6c3a2063616e206f6e6c792072656e6f756e636560008201527f20726f6c657320666f722073656c660000000000000000000000000000000000602082015250565b6000613568602f83612a55565b91506135738261350c565b604082019050919050565b600060208201905081810360008301526135978161355b565b9050919050565b7f4552433732313a20696e76616c696420746f6b656e2049440000000000000000600082015250565b60006135d4601883612a55565b91506135df8261359e565b602082019050919050565b60006020820190508181036000830152613603816135c7565b9050919050565b7f4552433732313a2061646472657373207a65726f206973206e6f74206120766160008201527f6c6964206f776e65720000000000000000000000000000000000000000000000602082015250565b6000613666602983612a55565b91506136718261360a565b604082019050919050565b6000602082019050818103600083015261369581613659565b9050919050565b600081905092915050565b60006136b282612a4a565b6136bc818561369c565b93506136cc818560208601612a66565b80840191505092915050565b60006136e482856136a7565b91506136f082846136a7565b91508190509392505050565b7f546865206f70657261746f72206d75737420626520746865206465737472756360008201527f746f722100000000000000000000000000000000000000000000000000000000602082015250565b6000613758602483612a55565b9150613763826136fc565b604082019050919050565b600060208201905081810360008301526137878161374b565b9050919050565b60008160601b9050919050565b60006137a68261378e565b9050919050565b60006137b88261379b565b9050919050565b6137d06137cb82612b88565b6137ad565b82525050565b60006137e282856137bf565b6014820191506137f282846136a7565b91508190509392505050565b7f4f776e61626c653a206e6577206f776e657220697320746865207a65726f206160008201527f6464726573730000000000000000000000000000000000000000000000000000602082015250565b600061385a602683612a55565b9150613865826137fe565b604082019050919050565b600060208201905081810360008301526138898161384d565b9050919050565b7f45524337323155524953746f726167653a2055524920736574206f66206e6f6e60008201527f6578697374656e7420746f6b656e000000000000000000000000000000000000602082015250565b60006138ec602e83612a55565b91506138f782613890565b604082019050919050565b6000602082019050818103600083015261391b816138df565b9050919050565b7f4552433732313a207472616e736665722066726f6d20696e636f72726563742060008201527f6f776e6572000000000000000000000000000000000000000000000000000000602082015250565b600061397e602583612a55565b915061398982613922565b604082019050919050565b600060208201905081810360008301526139ad81613971565b9050919050565b7f4552433732313a207472616e7366657220746f20746865207a65726f2061646460008201527f7265737300000000000000000000000000000000000000000000000000000000602082015250565b6000613a10602483612a55565b9150613a1b826139b4565b604082019050919050565b60006020820190508181036000830152613a3f81613a03565b9050919050565b7f4e487b7100000000000000000000000000000000000000000000000000000000600052601160045260246000fd5b6000613a8082612b05565b9150613a8b83612b05565b925082821015613a9e57613a9d613a46565b5b828203905092915050565b6000613ab482612b05565b9150613abf83612b05565b9250827fffffffffffffffffffffffffffffffffffffffffffffffffffffffffffffffff03821115613af457613af3613a46565b5b828201905092915050565b7f4f776e61626c653a2063616c6c6572206973206e6f7420746865206f776e6572600082015250565b6000613b35602083612a55565b9150613b4082613aff565b602082019050919050565b60006020820190508181036000830152613b6481613b28565b9050919050565b7f4552433732313a20617070726f766520746f2063616c6c657200000000000000600082015250565b6000613ba1601983612a55565b9150613bac82613b6b565b602082019050919050565b60006020820190508181036000830152613bd081613b94565b9050919050565b7f4552433732313a207472616e7366657220746f206e6f6e20455243373231526560008201527f63656976657220696d706c656d656e7465720000000000000000000000000000602082015250565b6000613c33603283612a55565b9150613c3e82613bd7565b604082019050919050565b60006020820190508181036000830152613c6281613c26565b9050919050565b7f19457468657265756d205369676e6564204d6573736167653a0a333200000000600082015250565b6000613c9f601c8361369c565b9150613caa82613c69565b601c82019050919050565b6000819050919050565b613cd0613ccb82612f85565b613cb5565b82525050565b6000613ce182613c92565b9150613ced8284613cbf565b60208201915081905092915050565b7f334944205046507320617265206e6f74207472616e7366657261626c652e0000600082015250565b6000613d32601e83612a55565b9150613d3d82613cfc565b602082019050919050565b60006020820190508181036000830152613d6181613d25565b9050919050565b7f416363657373436f6e74726f6c3a206163636f756e7420000000000000000000600082015250565b6000613d9e60178361369c565b9150613da982613d68565b601782019050919050565b7f206973206d697373696e6720726f6c6520000000000000000000000000000000600082015250565b6000613dea60118361369c565b9150613df582613db4565b601182019050919050565b6000613e0b82613d91565b9150613e1782856136a7565b9150613e2282613ddd565b9150613e2e82846136a7565b91508190509392505050565b600081519050919050565b600082825260208201905092915050565b6000613e6182613e3a565b613e6b8185613e45565b9350613e7b818560208601612a66565b613e8481612a99565b840191505092915050565b6000608082019050613ea46000830187612b9a565b613eb16020830186612b9a565b613ebe6040830185612f08565b8181036060830152613ed08184613e56565b905095945050505050565b600081519050613eea816129bb565b92915050565b600060208284031215613f0657613f05612985565b5b6000613f1484828501613edb565b91505092915050565b6000613f2882612b05565b91507fffffffffffffffffffffffffffffffffffffffffffffffffffffffffffffffff821415613f5b57613f5a613a46565b5b600182019050919050565b7f4e487b7100000000000000000000000000000000000000000000000000000000600052601260045260246000fd5b6000613fa082612b05565b9150613fab83612b05565b925082613fbb57613fba613f66565b5b828204905092915050565b6000613fd182612b05565b9150613fdc83612b05565b925082613fec57613feb613f66565b5b828206905092915050565b7f4e487b7100000000000000000000000000000000000000000000000000000000600052603260045260246000fd5b7f4e487b7100000000000000000000000000000000000000000000000000000000600052602160045260246000fd5b7f45434453413a20696e76616c6964207369676e61747572650000000000000000600082015250565b600061408b601883612a55565b915061409682614055565b602082019050919050565b600060208201905081810360008301526140ba8161407e565b9050919050565b7f45434453413a20696e76616c6964207369676e6174757265206c656e67746800600082015250565b60006140f7601f83612a55565b9150614102826140c1565b602082019050919050565b60006020820190508181036000830152614126816140ea565b9050919050565b7f45434453413a20696e76616c6964207369676e6174757265202773272076616c60008201527f7565000000000000000000000000000000000000000000000000000000000000602082015250565b6000614189602283612a55565b91506141948261412d565b604082019050919050565b600060208201905081810360008301526141b88161417c565b9050919050565b7f45434453413a20696e76616c6964207369676e6174757265202776272076616c60008201527f7565000000000000000000000000000000000000000000000000000000000000602082015250565b600061421b602283612a55565b9150614226826141bf565b604082019050919050565b6000602082019050818103600083015261424a8161420e565b9050919050565b7f4552433732313a206d696e7420746f20746865207a65726f2061646472657373600082015250565b6000614287602083612a55565b915061429282614251565b602082019050919050565b600060208201905081810360008301526142b68161427a565b9050919050565b7f4552433732313a20746f6b656e20616c7265616479206d696e74656400000000600082015250565b60006142f3601c83612a55565b91506142fe826142bd565b602082019050919050565b60006020820190508181036000830152614322816142e6565b9050919050565b600061433482612b05565b915061433f83612b05565b9250817fffffffffffffffffffffffffffffffffffffffffffffffffffffffffffffffff048311821515161561437857614377613a46565b5b828202905092915050565b600061438e82612b05565b915060008214156143a2576143a1613a46565b5b600182039050919050565b7f537472696e67733a20686578206c656e67746820696e73756666696369656e74600082015250565b60006143e3602083612a55565b91506143ee826143ad565b602082019050919050565b60006020820190508181036000830152614412816143d6565b9050919050565b600060ff82169050919050565b61442f81614419565b82525050565b600060808201905061444a6000830187612fe8565b6144576020830186614426565b6144646040830185612fe8565b6144716060830184612fe8565b9594505050505056fea2646970667358221220f629e7f23d9b64ea34d4a67e1c00eff14922b69766943fb6811248110fa3d51d64736f6c634300080c0033",
  "linkReferences": {},
  "deployedLinkReferences": {}
}