{
    "_format": "hh-sol-artifact-1",
    "contractName": "ThreeId_Invitations",
    "sourceName": "contracts/Invite.sol",
    "abi": [
        {
            "inputs": [
                {
                    "internalType": "address",
                    "name": "minter",
                    "type": "address"
                },
                {
                    "internalType": "uint256",
                    "name": "maxInvites",
                    "type": "uint256"
                },
                {
                    "components": [
                        {
                            "internalType": "address",
                            "name": "recipient",
                            "type": "address"
                        },
                        {
                            "internalType": "string",
                            "name": "uri",
                            "type": "string"
                        },
                        {
                            "internalType": "uint256",
                            "name": "tokenId",
                            "type": "uint256"
                        },
                        {
                            "internalType": "bytes",
                            "name": "signature",
                            "type": "bytes"
                        }
                    ],
                    "internalType": "struct NFTVoucher",
                    "name": "voucher",
                    "type": "tuple"
                }
            ],
            "stateMutability": "nonpayable",
            "type": "constructor"
        },
        {
            "anonymous": false,
            "inputs": [
                {
                    "indexed": true,
                    "internalType": "address",
                    "name": "owner",
                    "type": "address"
                },
                {
                    "indexed": true,
                    "internalType": "address",
                    "name": "approved",
                    "type": "address"
                },
                {
                    "indexed": true,
                    "internalType": "uint256",
                    "name": "tokenId",
                    "type": "uint256"
                }
            ],
            "name": "Approval",
            "type": "event"
        },
        {
            "anonymous": false,
            "inputs": [
                {
                    "indexed": true,
                    "internalType": "address",
                    "name": "owner",
                    "type": "address"
                },
                {
                    "indexed": true,
                    "internalType": "address",
                    "name": "operator",
                    "type": "address"
                },
                {
                    "indexed": false,
                    "internalType": "bool",
                    "name": "approved",
                    "type": "bool"
                }
            ],
            "name": "ApprovalForAll",
            "type": "event"
        },
        {
            "anonymous": false,
            "inputs": [
                {
                    "indexed": true,
                    "internalType": "address",
                    "name": "previousOwner",
                    "type": "address"
                },
                {
                    "indexed": true,
                    "internalType": "address",
                    "name": "newOwner",
                    "type": "address"
                }
            ],
            "name": "OwnershipTransferred",
            "type": "event"
        },
        {
            "anonymous": false,
            "inputs": [
                {
                    "indexed": true,
                    "internalType": "bytes32",
                    "name": "role",
                    "type": "bytes32"
                },
                {
                    "indexed": true,
                    "internalType": "bytes32",
                    "name": "previousAdminRole",
                    "type": "bytes32"
                },
                {
                    "indexed": true,
                    "internalType": "bytes32",
                    "name": "newAdminRole",
                    "type": "bytes32"
                }
            ],
            "name": "RoleAdminChanged",
            "type": "event"
        },
        {
            "anonymous": false,
            "inputs": [
                {
                    "indexed": true,
                    "internalType": "bytes32",
                    "name": "role",
                    "type": "bytes32"
                },
                {
                    "indexed": true,
                    "internalType": "address",
                    "name": "account",
                    "type": "address"
                },
                {
                    "indexed": true,
                    "internalType": "address",
                    "name": "sender",
                    "type": "address"
                }
            ],
            "name": "RoleGranted",
            "type": "event"
        },
        {
            "anonymous": false,
            "inputs": [
                {
                    "indexed": true,
                    "internalType": "bytes32",
                    "name": "role",
                    "type": "bytes32"
                },
                {
                    "indexed": true,
                    "internalType": "address",
                    "name": "account",
                    "type": "address"
                },
                {
                    "indexed": true,
                    "internalType": "address",
                    "name": "sender",
                    "type": "address"
                }
            ],
            "name": "RoleRevoked",
            "type": "event"
        },
        {
            "anonymous": false,
            "inputs": [
                {
                    "indexed": true,
                    "internalType": "address",
                    "name": "from",
                    "type": "address"
                },
                {
                    "indexed": true,
                    "internalType": "address",
                    "name": "to",
                    "type": "address"
                },
                {
                    "indexed": true,
                    "internalType": "uint256",
                    "name": "tokenId",
                    "type": "uint256"
                }
            ],
            "name": "Transfer",
            "type": "event"
        },
        {
            "inputs": [],
            "name": "DEFAULT_ADMIN_ROLE",
            "outputs": [
                {
                    "internalType": "bytes32",
                    "name": "",
                    "type": "bytes32"
                }
            ],
            "stateMutability": "view",
            "type": "function"
        },
        {
            "inputs": [],
            "name": "OPERATOR_ROLE",
            "outputs": [
                {
                    "internalType": "bytes32",
                    "name": "",
                    "type": "bytes32"
                }
            ],
            "stateMutability": "view",
            "type": "function"
        },
        {
            "inputs": [
                {
                    "components": [
                        {
                            "internalType": "address",
                            "name": "recipient",
                            "type": "address"
                        },
                        {
                            "internalType": "string",
                            "name": "uri",
                            "type": "string"
                        },
                        {
                            "internalType": "uint256",
                            "name": "tokenId",
                            "type": "uint256"
                        },
                        {
                            "internalType": "bytes",
                            "name": "signature",
                            "type": "bytes"
                        }
                    ],
                    "internalType": "struct NFTVoucher",
                    "name": "voucher",
                    "type": "tuple"
                }
            ],
            "name": "_recoverVoucherSigner",
            "outputs": [
                {
                    "internalType": "address",
                    "name": "",
                    "type": "address"
                }
            ],
            "stateMutability": "pure",
            "type": "function"
        },
        {
            "inputs": [
                {
                    "internalType": "address",
                    "name": "to",
                    "type": "address"
                },
                {
                    "internalType": "uint256",
                    "name": "tokenId",
                    "type": "uint256"
                }
            ],
            "name": "approve",
            "outputs": [],
            "stateMutability": "nonpayable",
            "type": "function"
        },
        {
            "inputs": [
                {
                    "internalType": "address",
                    "name": "invitee",
                    "type": "address"
                },
                {
                    "components": [
                        {
                            "internalType": "address",
                            "name": "recipient",
                            "type": "address"
                        },
                        {
                            "internalType": "string",
                            "name": "uri",
                            "type": "string"
                        },
                        {
                            "internalType": "uint256",
                            "name": "tokenId",
                            "type": "uint256"
                        },
                        {
                            "internalType": "bytes",
                            "name": "signature",
                            "type": "bytes"
                        }
                    ],
                    "internalType": "struct NFTVoucher",
                    "name": "voucher",
                    "type": "tuple"
                }
            ],
            "name": "awardInvite",
            "outputs": [
                {
                    "internalType": "uint256",
                    "name": "",
                    "type": "uint256"
                }
            ],
            "stateMutability": "nonpayable",
            "type": "function"
        },
        {
            "inputs": [
                {
                    "internalType": "address",
                    "name": "owner",
                    "type": "address"
                }
            ],
            "name": "balanceOf",
            "outputs": [
                {
                    "internalType": "uint256",
                    "name": "",
                    "type": "uint256"
                }
            ],
            "stateMutability": "view",
            "type": "function"
        },
        {
            "inputs": [
                {
                    "internalType": "address",
                    "name": "account",
                    "type": "address"
                }
            ],
            "name": "destructor",
            "outputs": [],
            "stateMutability": "nonpayable",
            "type": "function"
        },
        {
            "inputs": [
                {
                    "internalType": "uint256",
                    "name": "tokenId",
                    "type": "uint256"
                }
            ],
            "name": "getApproved",
            "outputs": [
                {
                    "internalType": "address",
                    "name": "",
                    "type": "address"
                }
            ],
            "stateMutability": "view",
            "type": "function"
        },
        {
            "inputs": [
                {
                    "internalType": "bytes32",
                    "name": "role",
                    "type": "bytes32"
                }
            ],
            "name": "getRoleAdmin",
            "outputs": [
                {
                    "internalType": "bytes32",
                    "name": "",
                    "type": "bytes32"
                }
            ],
            "stateMutability": "view",
            "type": "function"
        },
        {
            "inputs": [
                {
                    "internalType": "bytes32",
                    "name": "role",
                    "type": "bytes32"
                },
                {
                    "internalType": "address",
                    "name": "account",
                    "type": "address"
                }
            ],
            "name": "grantRole",
            "outputs": [],
            "stateMutability": "nonpayable",
            "type": "function"
        },
        {
            "inputs": [
                {
                    "internalType": "bytes32",
                    "name": "role",
                    "type": "bytes32"
                },
                {
                    "internalType": "address",
                    "name": "account",
                    "type": "address"
                }
            ],
            "name": "hasRole",
            "outputs": [
                {
                    "internalType": "bool",
                    "name": "",
                    "type": "bool"
                }
            ],
            "stateMutability": "view",
            "type": "function"
        },
        {
            "inputs": [
                {
                    "internalType": "address",
                    "name": "owner",
                    "type": "address"
                },
                {
                    "internalType": "address",
                    "name": "operator",
                    "type": "address"
                }
            ],
            "name": "isApprovedForAll",
            "outputs": [
                {
                    "internalType": "bool",
                    "name": "",
                    "type": "bool"
                }
            ],
            "stateMutability": "view",
            "type": "function"
        },
        {
            "inputs": [],
            "name": "maxInvitations",
            "outputs": [
                {
                    "internalType": "uint256",
                    "name": "",
                    "type": "uint256"
                }
            ],
            "stateMutability": "view",
            "type": "function"
        },
        {
            "inputs": [],
            "name": "name",
            "outputs": [
                {
                    "internalType": "string",
                    "name": "",
                    "type": "string"
                }
            ],
            "stateMutability": "view",
            "type": "function"
        },
        {
            "inputs": [],
            "name": "nextInvite",
            "outputs": [
                {
                    "internalType": "uint256",
                    "name": "",
                    "type": "uint256"
                }
            ],
            "stateMutability": "view",
            "type": "function"
        },
        {
            "inputs": [],
            "name": "owner",
            "outputs": [
                {
                    "internalType": "address",
                    "name": "",
                    "type": "address"
                }
            ],
            "stateMutability": "view",
            "type": "function"
        },
        {
            "inputs": [
                {
                    "internalType": "uint256",
                    "name": "tokenId",
                    "type": "uint256"
                }
            ],
            "name": "ownerOf",
            "outputs": [
                {
                    "internalType": "address",
                    "name": "",
                    "type": "address"
                }
            ],
            "stateMutability": "view",
            "type": "function"
        },
        {
            "inputs": [],
            "name": "renounceOwnership",
            "outputs": [],
            "stateMutability": "nonpayable",
            "type": "function"
        },
        {
            "inputs": [
                {
                    "internalType": "bytes32",
                    "name": "role",
                    "type": "bytes32"
                },
                {
                    "internalType": "address",
                    "name": "account",
                    "type": "address"
                }
            ],
            "name": "renounceRole",
            "outputs": [],
            "stateMutability": "nonpayable",
            "type": "function"
        },
        {
            "inputs": [
                {
                    "internalType": "bytes32",
                    "name": "role",
                    "type": "bytes32"
                },
                {
                    "internalType": "address",
                    "name": "account",
                    "type": "address"
                }
            ],
            "name": "revokeRole",
            "outputs": [],
            "stateMutability": "nonpayable",
            "type": "function"
        },
        {
            "inputs": [
                {
                    "internalType": "address",
                    "name": "from",
                    "type": "address"
                },
                {
                    "internalType": "address",
                    "name": "to",
                    "type": "address"
                },
                {
                    "internalType": "uint256",
                    "name": "tokenId",
                    "type": "uint256"
                }
            ],
            "name": "safeTransferFrom",
            "outputs": [],
            "stateMutability": "nonpayable",
            "type": "function"
        },
        {
            "inputs": [
                {
                    "internalType": "address",
                    "name": "from",
                    "type": "address"
                },
                {
                    "internalType": "address",
                    "name": "to",
                    "type": "address"
                },
                {
                    "internalType": "uint256",
                    "name": "tokenId",
                    "type": "uint256"
                },
                {
                    "internalType": "bytes",
                    "name": "data",
                    "type": "bytes"
                }
            ],
            "name": "safeTransferFrom",
            "outputs": [],
            "stateMutability": "nonpayable",
            "type": "function"
        },
        {
            "inputs": [
                {
                    "internalType": "address",
                    "name": "operator",
                    "type": "address"
                },
                {
                    "internalType": "bool",
                    "name": "approved",
                    "type": "bool"
                }
            ],
            "name": "setApprovalForAll",
            "outputs": [],
            "stateMutability": "nonpayable",
            "type": "function"
        },
        {
            "inputs": [
                {
                    "internalType": "bytes4",
                    "name": "interfaceId",
                    "type": "bytes4"
                }
            ],
            "name": "supportsInterface",
            "outputs": [
                {
                    "internalType": "bool",
                    "name": "",
                    "type": "bool"
                }
            ],
            "stateMutability": "view",
            "type": "function"
        },
        {
            "inputs": [],
            "name": "symbol",
            "outputs": [
                {
                    "internalType": "string",
                    "name": "",
                    "type": "string"
                }
            ],
            "stateMutability": "view",
            "type": "function"
        },
        {
            "inputs": [
                {
                    "internalType": "uint256",
                    "name": "tokenId",
                    "type": "uint256"
                }
            ],
            "name": "tokenURI",
            "outputs": [
                {
                    "internalType": "string",
                    "name": "",
                    "type": "string"
                }
            ],
            "stateMutability": "view",
            "type": "function"
        },
        {
            "inputs": [
                {
                    "internalType": "address",
                    "name": "from",
                    "type": "address"
                },
                {
                    "internalType": "address",
                    "name": "to",
                    "type": "address"
                },
                {
                    "internalType": "uint256",
                    "name": "tokenId",
                    "type": "uint256"
                }
            ],
            "name": "transferFrom",
            "outputs": [],
            "stateMutability": "nonpayable",
            "type": "function"
        },
        {
            "inputs": [
                {
                    "internalType": "address",
                    "name": "newOwner",
                    "type": "address"
                }
            ],
            "name": "transferOwnership",
            "outputs": [],
            "stateMutability": "nonpayable",
            "type": "function"
        }
    ],
    "bytecode": "0x60806040523480156200001157600080fd5b5060405162006ebe38038062006ebe833981810160405281019062000037919062001908565b6040518060400160405280600e81526020017f33494420496e7669746174696f6e0000000000000000000000000000000000008152506040518060400160405280600381526020017f33494400000000000000000000000000000000000000000000000000000000008152508160009080519060200190620000bb9291906200149a565b508060019080519060200190620000d49291906200149a565b505050620000f7620000eb6200023360201b60201c565b6200023b60201b60201c565b620001297f97667070c54ef182b0f5858b034beac1b6f3089aa2d3188bb1e8929f4fa9b929846200030160201b60201c565b82600b60006101000a81548173ffffffffffffffffffffffffffffffffffffffff021916908373ffffffffffffffffffffffffffffffffffffffff16021790555081600a81905550620001f56040518060400160405280600d81526020017f4f50455241544f525f524f4c4500000000000000000000000000000000000000815250620001e47f97667070c54ef182b0f5858b034beac1b6f3089aa2d3188bb1e8929f4fa9b92960001c6200031760201b6200112b1760201c565b620003ab60201b620011b11760201c565b62000229600b60009054906101000a900473ffffffffffffffffffffffffffffffffffffffff16826200045160201b60201c565b5050505062002699565b600033905090565b6000600860009054906101000a900473ffffffffffffffffffffffffffffffffffffffff16905081600860006101000a81548173ffffffffffffffffffffffffffffffffffffffff021916908373ffffffffffffffffffffffffffffffffffffffff1602179055508173ffffffffffffffffffffffffffffffffffffffff168173ffffffffffffffffffffffffffffffffffffffff167f8be0079c531659141344cd1fd0a4f28419497f9722a3daafe3b4186f6b6457e060405160405180910390a35050565b6200031382826200064660201b60201c565b5050565b6060600082141562000361576040518060400160405280600481526020017f30783030000000000000000000000000000000000000000000000000000000008152509050620003a6565b600082905060005b600082146200038f5780806200037f90620019b2565b915050600882901c915062000369565b620003a184826200073860201b60201c565b925050505b919050565b6200044d8282604051602401620003c492919062001a5d565b6040516020818303038152906040527f4b5c4277000000000000000000000000000000000000000000000000000000007bffffffffffffffffffffffffffffffffffffffffffffffffffffffff19166020820180517bffffffffffffffffffffffffffffffffffffffffffffffffffffffff83818316178352505050506200099360201b60201c565b5050565b6000806200046583620009bc60201b60201c565b9050620004997f97667070c54ef182b0f5858b034beac1b6f3089aa2d3188bb1e8929f4fa9b9298262000a3860201b60201c565b620004db576040517f08c379a0000000000000000000000000000000000000000000000000000000008152600401620004d29062001b0e565b60405180910390fd5b826000015173ffffffffffffffffffffffffffffffffffffffff168473ffffffffffffffffffffffffffffffffffffffff161462000550576040517f08c379a0000000000000000000000000000000000000000000000000000000008152600401620005479062001b80565b60405180910390fd5b600062000569600962000aa360201b6200124d1760201c565b905080846040015114620005b4576040517f08c379a0000000000000000000000000000000000000000000000000000000008152600401620005ab9062001c18565b60405180910390fd5b600a54811115620005fc576040517f08c379a0000000000000000000000000000000000000000000000000000000008152600401620005f39062001cb0565b60405180910390fd5b6200060e858262000ab160201b60201c565b6200062481856020015162000ad760201b60201c565b6200063b600962000b5860201b6200125b1760201c565b809250505092915050565b62000658828262000a3860201b60201c565b620007345760016007600084815260200190815260200160002060000160008373ffffffffffffffffffffffffffffffffffffffff1673ffffffffffffffffffffffffffffffffffffffff16815260200190815260200160002060006101000a81548160ff021916908315150217905550620006d96200023360201b60201c565b73ffffffffffffffffffffffffffffffffffffffff168173ffffffffffffffffffffffffffffffffffffffff16837f2f8788117e7eff1d82e926ec794901d17c78024a50270940304540a733656f0d60405160405180910390a45b5050565b6060600060028360026200074d919062001cd2565b62000759919062001d33565b67ffffffffffffffff81111562000775576200077462001614565b5b6040519080825280601f01601f191660200182016040528015620007a85781602001600182028036833780820191505090505b5090507f300000000000000000000000000000000000000000000000000000000000000081600081518110620007e357620007e262001d90565b5b60200101907effffffffffffffffffffffffffffffffffffffffffffffffffffffffffffff1916908160001a9053507f7800000000000000000000000000000000000000000000000000000000000000816001815181106200084a576200084962001d90565b5b60200101907effffffffffffffffffffffffffffffffffffffffffffffffffffffffffffff1916908160001a905350600060018460026200088c919062001cd2565b62000898919062001d33565b90505b600181111562000942577f3031323334353637383961626364656600000000000000000000000000000000600f861660108110620008de57620008dd62001d90565b5b1a60f81b828281518110620008f857620008f762001d90565b5b60200101907effffffffffffffffffffffffffffffffffffffffffffffffffffffffffffff1916908160001a905350600485901c9450806200093a9062001dbf565b90506200089b565b506000841462000989576040517f08c379a0000000000000000000000000000000000000000000000000000000008152600401620009809062001e3e565b60405180910390fd5b8091505092915050565b60008151905060006a636f6e736f6c652e6c6f679050602083016000808483855afa5050505050565b600080826000015183602001518460400151604051602001620009e29392919062001f17565b604051602081830303815290604052805190602001209050600062000a128262000b6e60201b620012711760201c565b905062000a2f81856060015162000ba060201b620012a11760201c565b92505050919050565b60006007600084815260200190815260200160002060000160008373ffffffffffffffffffffffffffffffffffffffff1673ffffffffffffffffffffffffffffffffffffffff16815260200190815260200160002060009054906101000a900460ff16905092915050565b600081600001549050919050565b62000ad382826040518060200160405280600081525062000bd760201b60201c565b5050565b62000ae88262000c4560201b60201c565b62000b2a576040517f08c379a000000000000000000000000000000000000000000000000000000000815260040162000b219062001fcc565b60405180910390fd5b8060066000848152602001908152602001600020908051906020019062000b539291906200149a565b505050565b6001816000016000828254019250508190555050565b60008160405160200162000b8391906200206d565b604051602081830303815290604052805190602001209050919050565b600080600062000bb7858562000cb160201b60201c565b9150915062000bcc8162000d4860201b60201c565b819250505092915050565b62000be9838362000f4960201b60201c565b62000bfe60008484846200114360201b60201c565b62000c40576040517f08c379a000000000000000000000000000000000000000000000000000000000815260040162000c37906200210d565b60405180910390fd5b505050565b60008073ffffffffffffffffffffffffffffffffffffffff166002600084815260200190815260200160002060009054906101000a900473ffffffffffffffffffffffffffffffffffffffff1673ffffffffffffffffffffffffffffffffffffffff1614159050919050565b60008060418351141562000cfd5760008060006020860151925060408601519150606086015160001a905062000cf087828585620012ed60201b60201c565b9450945050505062000d41565b60408351141562000d3857600080602085015191506040850151905062000d2c8683836200140460201b60201c565b93509350505062000d41565b60006002915091505b9250929050565b6000600481111562000d5f5762000d5e6200212f565b5b81600481111562000d755762000d746200212f565b5b141562000d825762000f46565b6001600481111562000d995762000d986200212f565b5b81600481111562000daf5762000dae6200212f565b5b141562000df3576040517f08c379a000000000000000000000000000000000000000000000000000000000815260040162000dea90620021ae565b60405180910390fd5b6002600481111562000e0a5762000e096200212f565b5b81600481111562000e205762000e1f6200212f565b5b141562000e64576040517f08c379a000000000000000000000000000000000000000000000000000000000815260040162000e5b9062002220565b60405180910390fd5b6003600481111562000e7b5762000e7a6200212f565b5b81600481111562000e915762000e906200212f565b5b141562000ed5576040517f08c379a000000000000000000000000000000000000000000000000000000000815260040162000ecc90620022b8565b60405180910390fd5b60048081111562000eeb5762000eea6200212f565b5b81600481111562000f015762000f006200212f565b5b141562000f45576040517f08c379a000000000000000000000000000000000000000000000000000000000815260040162000f3c9062002350565b60405180910390fd5b5b50565b600073ffffffffffffffffffffffffffffffffffffffff168273ffffffffffffffffffffffffffffffffffffffff16141562000fbc576040517f08c379a000000000000000000000000000000000000000000000000000000000815260040162000fb390620023c2565b60405180910390fd5b62000fcd8162000c4560201b60201c565b1562001010576040517f08c379a0000000000000000000000000000000000000000000000000000000008152600401620010079062002434565b60405180910390fd5b62001024600083836200146d60201b60201c565b6001600360008473ffffffffffffffffffffffffffffffffffffffff1673ffffffffffffffffffffffffffffffffffffffff168152602001908152602001600020600082825462001076919062001d33565b92505081905550816002600083815260200190815260200160002060006101000a81548173ffffffffffffffffffffffffffffffffffffffff021916908373ffffffffffffffffffffffffffffffffffffffff160217905550808273ffffffffffffffffffffffffffffffffffffffff16600073ffffffffffffffffffffffffffffffffffffffff167fddf252ad1be2c89b69c2b068fc378daa952ba7f163c4a11628f55a4df523b3ef60405160405180910390a46200113f600083836200147260201b60201c565b5050565b6000620011718473ffffffffffffffffffffffffffffffffffffffff166200147760201b620012c81760201c565b15620012e0578373ffffffffffffffffffffffffffffffffffffffff1663150b7a02620011a36200023360201b60201c565b8786866040518563ffffffff1660e01b8152600401620011c79493929190620024d5565b6020604051808303816000875af19250505080156200120657506040513d601f19601f8201168201806040525081019062001203919062002586565b60015b6200128f573d806000811462001239576040519150601f19603f3d011682016040523d82523d6000602084013e6200123e565b606091505b5060008151141562001287576040517f08c379a00000000000000000000000000000000000000000000000000000000081526004016200127e906200210d565b60405180910390fd5b805181602001fd5b63150b7a0260e01b7bffffffffffffffffffffffffffffffffffffffffffffffffffffffff1916817bffffffffffffffffffffffffffffffffffffffffffffffffffffffff191614915050620012e5565b600190505b949350505050565b6000807f7fffffffffffffffffffffffffffffff5d576e7357a4501ddfe92f46681b20a08360001c11156200132a576000600391509150620013fb565b601b8560ff1614158015620013435750601c8560ff1614155b1562001357576000600491509150620013fb565b6000600187878787604051600081526020016040526040516200137e9493929190620025e7565b6020604051602081039080840390855afa158015620013a1573d6000803e3d6000fd5b505050602060405103519050600073ffffffffffffffffffffffffffffffffffffffff168173ffffffffffffffffffffffffffffffffffffffff161415620013f257600060019250925050620013fb565b80600092509250505b94509492505050565b60008060007f7fffffffffffffffffffffffffffffffffffffffffffffffffffffffffffffff60001b841690506000601b60ff8660001c901c62001449919062001d33565b90506200145f87828885620012ed60201b60201c565b935093505050935093915050565b505050565b505050565b6000808273ffffffffffffffffffffffffffffffffffffffff163b119050919050565b828054620014a89062002663565b90600052602060002090601f016020900481019282620014cc576000855562001518565b82601f10620014e757805160ff191683800117855562001518565b8280016001018555821562001518579182015b8281111562001517578251825591602001919060010190620014fa565b5b5090506200152791906200152b565b5090565b5b80821115620015465760008160009055506001016200152c565b5090565b6000604051905090565b600080fd5b600080fd5b600073ffffffffffffffffffffffffffffffffffffffff82169050919050565b60006200158b826200155e565b9050919050565b6200159d816200157e565b8114620015a957600080fd5b50565b600081519050620015bd8162001592565b92915050565b6000819050919050565b620015d881620015c3565b8114620015e457600080fd5b50565b600081519050620015f881620015cd565b92915050565b600080fd5b6000601f19601f8301169050919050565b7f4e487b7100000000000000000000000000000000000000000000000000000000600052604160045260246000fd5b6200164e8262001603565b810181811067ffffffffffffffff8211171562001670576200166f62001614565b5b80604052505050565b6000620016856200154a565b905062001693828262001643565b919050565b600080fd5b600080fd5b600080fd5b600067ffffffffffffffff821115620016c557620016c462001614565b5b620016d08262001603565b9050602081019050919050565b60005b83811015620016fd578082015181840152602081019050620016e0565b838111156200170d576000848401525b50505050565b60006200172a6200172484620016a7565b62001679565b905082815260208101848484011115620017495762001748620016a2565b5b62001756848285620016dd565b509392505050565b600082601f8301126200177657620017756200169d565b5b81516200178884826020860162001713565b91505092915050565b600067ffffffffffffffff821115620017af57620017ae62001614565b5b620017ba8262001603565b9050602081019050919050565b6000620017de620017d88462001791565b62001679565b905082815260208101848484011115620017fd57620017fc620016a2565b5b6200180a848285620016dd565b509392505050565b600082601f8301126200182a57620018296200169d565b5b81516200183c848260208601620017c7565b91505092915050565b6000608082840312156200185e576200185d620015fe565b5b6200186a608062001679565b905060006200187c84828501620015ac565b600083015250602082015167ffffffffffffffff811115620018a357620018a262001698565b5b620018b1848285016200175e565b6020830152506040620018c784828501620015e7565b604083015250606082015167ffffffffffffffff811115620018ee57620018ed62001698565b5b620018fc8482850162001812565b60608301525092915050565b60008060006060848603121562001924576200192362001554565b5b60006200193486828701620015ac565b93505060206200194786828701620015e7565b925050604084015167ffffffffffffffff8111156200196b576200196a62001559565b5b620019798682870162001845565b9150509250925092565b7f4e487b7100000000000000000000000000000000000000000000000000000000600052601160045260246000fd5b6000620019bf82620015c3565b91507fffffffffffffffffffffffffffffffffffffffffffffffffffffffffffffffff821415620019f557620019f462001983565b5b600182019050919050565b600081519050919050565b600082825260208201905092915050565b600062001a298262001a00565b62001a35818562001a0b565b935062001a47818560208601620016dd565b62001a528162001603565b840191505092915050565b6000604082019050818103600083015262001a79818562001a1c565b9050818103602083015262001a8f818462001a1c565b90509392505050565b7f5369676e617475726520696e76616c6964206f7220756e617574686f72697a6560008201527f6421000000000000000000000000000000000000000000000000000000000000602082015250565b600062001af660228362001a0b565b915062001b038262001a98565b604082019050919050565b6000602082019050818103600083015262001b298162001ae7565b9050919050565b7f496e76616c696420726563697069656e74210000000000000000000000000000600082015250565b600062001b6860128362001a0b565b915062001b758262001b30565b602082019050919050565b6000602082019050818103600083015262001b9b8162001b59565b9050919050565b7f506c65617365207265717565737420696e7669746174696f6e7320696e20736560008201527f7175656e63652e00000000000000000000000000000000000000000000000000602082015250565b600062001c0060278362001a0b565b915062001c0d8262001ba2565b604082019050919050565b6000602082019050818103600083015262001c338162001bf1565b9050919050565b7f416c6c20696e7669746174696f6e732068617665206265656e2061776172646560008201527f6421000000000000000000000000000000000000000000000000000000000000602082015250565b600062001c9860228362001a0b565b915062001ca58262001c3a565b604082019050919050565b6000602082019050818103600083015262001ccb8162001c89565b9050919050565b600062001cdf82620015c3565b915062001cec83620015c3565b9250817fffffffffffffffffffffffffffffffffffffffffffffffffffffffffffffffff048311821515161562001d285762001d2762001983565b5b828202905092915050565b600062001d4082620015c3565b915062001d4d83620015c3565b9250827fffffffffffffffffffffffffffffffffffffffffffffffffffffffffffffffff0382111562001d855762001d8462001983565b5b828201905092915050565b7f4e487b7100000000000000000000000000000000000000000000000000000000600052603260045260246000fd5b600062001dcc82620015c3565b9150600082141562001de35762001de262001983565b5b600182039050919050565b7f537472696e67733a20686578206c656e67746820696e73756666696369656e74600082015250565b600062001e2660208362001a0b565b915062001e338262001dee565b602082019050919050565b6000602082019050818103600083015262001e598162001e17565b9050919050565b60008160601b9050919050565b600062001e7a8262001e60565b9050919050565b600062001e8e8262001e6d565b9050919050565b62001eaa62001ea4826200157e565b62001e81565b82525050565b600081905092915050565b600062001ec88262001a00565b62001ed4818562001eb0565b935062001ee6818560208601620016dd565b80840191505092915050565b6000819050919050565b62001f1162001f0b82620015c3565b62001ef2565b82525050565b600062001f25828662001e95565b60148201915062001f37828562001ebb565b915062001f45828462001efc565b602082019150819050949350505050565b7f45524337323155524953746f726167653a2055524920736574206f66206e6f6e60008201527f6578697374656e7420746f6b656e000000000000000000000000000000000000602082015250565b600062001fb4602e8362001a0b565b915062001fc18262001f56565b604082019050919050565b6000602082019050818103600083015262001fe78162001fa5565b9050919050565b7f19457468657265756d205369676e6564204d6573736167653a0a333200000000600082015250565b600062002026601c8362001eb0565b9150620020338262001fee565b601c82019050919050565b6000819050919050565b6000819050919050565b6200206762002061826200203e565b62002048565b82525050565b60006200207a8262002017565b915062002088828462002052565b60208201915081905092915050565b7f4552433732313a207472616e7366657220746f206e6f6e20455243373231526560008201527f63656976657220696d706c656d656e7465720000000000000000000000000000602082015250565b6000620020f560328362001a0b565b9150620021028262002097565b604082019050919050565b600060208201905081810360008301526200212881620020e6565b9050919050565b7f4e487b7100000000000000000000000000000000000000000000000000000000600052602160045260246000fd5b7f45434453413a20696e76616c6964207369676e61747572650000000000000000600082015250565b60006200219660188362001a0b565b9150620021a3826200215e565b602082019050919050565b60006020820190508181036000830152620021c98162002187565b9050919050565b7f45434453413a20696e76616c6964207369676e6174757265206c656e67746800600082015250565b600062002208601f8362001a0b565b91506200221582620021d0565b602082019050919050565b600060208201905081810360008301526200223b81620021f9565b9050919050565b7f45434453413a20696e76616c6964207369676e6174757265202773272076616c60008201527f7565000000000000000000000000000000000000000000000000000000000000602082015250565b6000620022a060228362001a0b565b9150620022ad8262002242565b604082019050919050565b60006020820190508181036000830152620022d38162002291565b9050919050565b7f45434453413a20696e76616c6964207369676e6174757265202776272076616c60008201527f7565000000000000000000000000000000000000000000000000000000000000602082015250565b60006200233860228362001a0b565b91506200234582620022da565b604082019050919050565b600060208201905081810360008301526200236b8162002329565b9050919050565b7f4552433732313a206d696e7420746f20746865207a65726f2061646472657373600082015250565b6000620023aa60208362001a0b565b9150620023b78262002372565b602082019050919050565b60006020820190508181036000830152620023dd816200239b565b9050919050565b7f4552433732313a20746f6b656e20616c7265616479206d696e74656400000000600082015250565b60006200241c601c8362001a0b565b91506200242982620023e4565b602082019050919050565b600060208201905081810360008301526200244f816200240d565b9050919050565b62002461816200157e565b82525050565b6200247281620015c3565b82525050565b600081519050919050565b600082825260208201905092915050565b6000620024a18262002478565b620024ad818562002483565b9350620024bf818560208601620016dd565b620024ca8162001603565b840191505092915050565b6000608082019050620024ec600083018762002456565b620024fb602083018662002456565b6200250a604083018562002467565b81810360608301526200251e818462002494565b905095945050505050565b60007fffffffff0000000000000000000000000000000000000000000000000000000082169050919050565b620025608162002529565b81146200256c57600080fd5b50565b600081519050620025808162002555565b92915050565b6000602082840312156200259f576200259e62001554565b5b6000620025af848285016200256f565b91505092915050565b620025c3816200203e565b82525050565b600060ff82169050919050565b620025e181620025c9565b82525050565b6000608082019050620025fe6000830187620025b8565b6200260d6020830186620025d6565b6200261c6040830185620025b8565b6200262b6060830184620025b8565b95945050505050565b7f4e487b7100000000000000000000000000000000000000000000000000000000600052602260045260246000fd5b600060028204905060018216806200267c57607f821691505b6020821081141562002693576200269262002634565b5b50919050565b61481580620026a96000396000f3fe608060405234801561001057600080fd5b50600436106101c45760003560e01c806391d14854116100f9578063d547741f11610097578063f2fde38b11610071578063f2fde38b14610515578063f5b541a614610531578063f676cc1f1461054f578063ff37c2bc1461057f576101c4565b8063d547741f146104ad578063db7b2716146104c9578063e985e9c5146104e5576101c4565b8063a217fddf116100d3578063a217fddf14610427578063a22cb46514610445578063b88d4fde14610461578063c87b56dd1461047d576101c4565b806391d14854146103bb57806395d89b41146103eb5780639d25f41214610409576101c4565b80632f2ff15d116101665780636352211e116101405780636352211e1461033357806370a0823114610363578063715018a6146103935780638da5cb5b1461039d576101c4565b80632f2ff15d146102df57806336568abe146102fb57806342842e0e14610317576101c4565b8063095ea7b3116101a2578063095ea7b31461024757806314cf99e41461026357806323b872dd14610293578063248a9ca3146102af576101c4565b806301ffc9a7146101c957806306fdde03146101f9578063081812fc14610217575b600080fd5b6101e360048036038101906101de9190612c17565b61059d565b6040516101f09190612c5f565b60405180910390f35b6102016105af565b60405161020e9190612d13565b60405180910390f35b610231600480360381019061022c9190612d6b565b610641565b60405161023e9190612dd9565b60405180910390f35b610261600480360381019061025c9190612e20565b610687565b005b61027d600480360381019061027891906130f0565b61079f565b60405161028a9190612dd9565b60405180910390f35b6102ad60048036038101906102a89190613139565b6107ff565b005b6102c960048036038101906102c491906131c2565b61085f565b6040516102d691906131fe565b60405180910390f35b6102f960048036038101906102f49190613219565b61087f565b005b61031560048036038101906103109190613219565b6108a0565b005b610331600480360381019061032c9190613139565b610923565b005b61034d60048036038101906103489190612d6b565b610943565b60405161035a9190612dd9565b60405180910390f35b61037d60048036038101906103789190613259565b6109f5565b60405161038a9190613295565b60405180910390f35b61039b610aad565b005b6103a5610ac1565b6040516103b29190612dd9565b60405180910390f35b6103d560048036038101906103d09190613219565b610aeb565b6040516103e29190612c5f565b60405180910390f35b6103f3610b56565b6040516104009190612d13565b60405180910390f35b610411610be8565b60405161041e9190613295565b60405180910390f35b61042f610bf2565b60405161043c91906131fe565b60405180910390f35b61045f600480360381019061045a91906132dc565b610bf9565b005b61047b6004803603810190610476919061331c565b610c0f565b005b61049760048036038101906104929190612d6b565b610c71565b6040516104a49190612d13565b60405180910390f35b6104c760048036038101906104c29190613219565b610d84565b005b6104e360048036038101906104de9190613259565b610da5565b005b6104ff60048036038101906104fa919061339f565b610e2f565b60405161050c9190612c5f565b60405180910390f35b61052f600480360381019061052a9190613259565b610ec3565b005b610539610f47565b60405161054691906131fe565b60405180910390f35b610569600480360381019061056491906133df565b610f6b565b6040516105769190613295565b60405180910390f35b61058761111a565b6040516105949190613295565b60405180910390f35b60006105a8826112eb565b9050919050565b6060600080546105be9061346a565b80601f01602080910402602001604051908101604052809291908181526020018280546105ea9061346a565b80156106375780601f1061060c57610100808354040283529160200191610637565b820191906000526020600020905b81548152906001019060200180831161061a57829003601f168201915b5050505050905090565b600061064c82611365565b6004600083815260200190815260200160002060009054906101000a900473ffffffffffffffffffffffffffffffffffffffff169050919050565b600061069282610943565b90508073ffffffffffffffffffffffffffffffffffffffff168373ffffffffffffffffffffffffffffffffffffffff161415610703576040517f08c379a00000000000000000000000000000000000000000000000000000000081526004016106fa9061350e565b60405180910390fd5b8073ffffffffffffffffffffffffffffffffffffffff166107226113b0565b73ffffffffffffffffffffffffffffffffffffffff16148061075157506107508161074b6113b0565b610e2f565b5b610790576040517f08c379a0000000000000000000000000000000000000000000000000000000008152600401610787906135a0565b60405180910390fd5b61079a83836113b8565b505050565b6000808260000151836020015184604001516040516020016107c393929190613665565b60405160208183030381529060405280519060200120905060006107e682611271565b90506107f68185606001516112a1565b92505050919050565b61081061080a6113b0565b82611471565b61084f576040517f08c379a000000000000000000000000000000000000000000000000000000000815260040161084690613710565b60405180910390fd5b61085a838383611506565b505050565b600060076000838152602001908152602001600020600101549050919050565b6108888261085f565b6108918161176d565b61089b8383611781565b505050565b6108a86113b0565b73ffffffffffffffffffffffffffffffffffffffff168173ffffffffffffffffffffffffffffffffffffffff1614610915576040517f08c379a000000000000000000000000000000000000000000000000000000000815260040161090c906137a2565b60405180910390fd5b61091f8282611862565b5050565b61093e83838360405180602001604052806000815250610c0f565b505050565b6000806002600084815260200190815260200160002060009054906101000a900473ffffffffffffffffffffffffffffffffffffffff169050600073ffffffffffffffffffffffffffffffffffffffff168173ffffffffffffffffffffffffffffffffffffffff1614156109ec576040517f08c379a00000000000000000000000000000000000000000000000000000000081526004016109e39061380e565b60405180910390fd5b80915050919050565b60008073ffffffffffffffffffffffffffffffffffffffff168273ffffffffffffffffffffffffffffffffffffffff161415610a66576040517f08c379a0000000000000000000000000000000000000000000000000000000008152600401610a5d906138a0565b60405180910390fd5b600360008373ffffffffffffffffffffffffffffffffffffffff1673ffffffffffffffffffffffffffffffffffffffff168152602001908152602001600020549050919050565b610ab5611944565b610abf60006119c2565b565b6000600860009054906101000a900473ffffffffffffffffffffffffffffffffffffffff16905090565b60006007600084815260200190815260200160002060000160008373ffffffffffffffffffffffffffffffffffffffff1673ffffffffffffffffffffffffffffffffffffffff16815260200190815260200160002060009054906101000a900460ff16905092915050565b606060018054610b659061346a565b80601f0160208091040260200160405190810160405280929190818152602001828054610b919061346a565b8015610bde5780601f10610bb357610100808354040283529160200191610bde565b820191906000526020600020905b815481529060010190602001808311610bc157829003601f168201915b5050505050905090565b6000600a54905090565b6000801b81565b610c0b610c046113b0565b8383611a88565b5050565b610c20610c1a6113b0565b83611471565b610c5f576040517f08c379a0000000000000000000000000000000000000000000000000000000008152600401610c5690613710565b60405180910390fd5b610c6b84848484611bf5565b50505050565b6060610c7c82611365565b6000600660008481526020019081526020016000208054610c9c9061346a565b80601f0160208091040260200160405190810160405280929190818152602001828054610cc89061346a565b8015610d155780601f10610cea57610100808354040283529160200191610d15565b820191906000526020600020905b815481529060010190602001808311610cf857829003601f168201915b505050505090506000610d26611c51565b9050600081511415610d3c578192505050610d7f565b600082511115610d71578082604051602001610d599291906138c0565b60405160208183030381529060405292505050610d7f565b610d7a84611c68565b925050505b919050565b610d8d8261085f565b610d968161176d565b610da08383611862565b505050565b610dad611944565b610dd77f97667070c54ef182b0f5858b034beac1b6f3089aa2d3188bb1e8929f4fa9b92982610aeb565b610e16576040517f08c379a0000000000000000000000000000000000000000000000000000000008152600401610e0d90613956565b60405180910390fd5b8073ffffffffffffffffffffffffffffffffffffffff16ff5b6000600560008473ffffffffffffffffffffffffffffffffffffffff1673ffffffffffffffffffffffffffffffffffffffff16815260200190815260200160002060008373ffffffffffffffffffffffffffffffffffffffff1673ffffffffffffffffffffffffffffffffffffffff16815260200190815260200160002060009054906101000a900460ff16905092915050565b610ecb611944565b600073ffffffffffffffffffffffffffffffffffffffff168173ffffffffffffffffffffffffffffffffffffffff161415610f3b576040517f08c379a0000000000000000000000000000000000000000000000000000000008152600401610f32906139e8565b60405180910390fd5b610f44816119c2565b50565b7f97667070c54ef182b0f5858b034beac1b6f3089aa2d3188bb1e8929f4fa9b92981565b600080610f778361079f565b9050610fa37f97667070c54ef182b0f5858b034beac1b6f3089aa2d3188bb1e8929f4fa9b92982610aeb565b610fe2576040517f08c379a0000000000000000000000000000000000000000000000000000000008152600401610fd990613a7a565b60405180910390fd5b826000015173ffffffffffffffffffffffffffffffffffffffff168473ffffffffffffffffffffffffffffffffffffffff1614611054576040517f08c379a000000000000000000000000000000000000000000000000000000000815260040161104b90613ae6565b60405180910390fd5b6000611060600961124d565b9050808460400151146110a8576040517f08c379a000000000000000000000000000000000000000000000000000000000815260040161109f90613b78565b60405180910390fd5b600a548111156110ed576040517f08c379a00000000000000000000000000000000000000000000000000000000081526004016110e490613c0a565b60405180910390fd5b6110f78582611cd0565b611105818560200151611cee565b61110f600961125b565b809250505092915050565b6000611126600961124d565b905090565b60606000821415611173576040518060400160405280600481526020017f307830300000000000000000000000000000000000000000000000000000000081525090506111ac565b600082905060005b6000821461119d57808061118e90613c59565b915050600882901c915061117b565b6111a78482611d62565b925050505b919050565b61124982826040516024016111c7929190613ca2565b6040516020818303038152906040527f4b5c4277000000000000000000000000000000000000000000000000000000007bffffffffffffffffffffffffffffffffffffffffffffffffffffffff19166020820180517bffffffffffffffffffffffffffffffffffffffffffffffffffffffff8381831617835250505050611f9e565b5050565b600081600001549050919050565b6001816000016000828254019250508190555050565b6000816040516020016112849190613d46565b604051602081830303815290604052805190602001209050919050565b60008060006112b08585611fc7565b915091506112bd8161204a565b819250505092915050565b6000808273ffffffffffffffffffffffffffffffffffffffff163b119050919050565b60007f7965db0b000000000000000000000000000000000000000000000000000000007bffffffffffffffffffffffffffffffffffffffffffffffffffffffff1916827bffffffffffffffffffffffffffffffffffffffffffffffffffffffff1916148061135e575061135d8261221f565b5b9050919050565b61136e81612301565b6113ad576040517f08c379a00000000000000000000000000000000000000000000000000000000081526004016113a49061380e565b60405180910390fd5b50565b600033905090565b816004600083815260200190815260200160002060006101000a81548173ffffffffffffffffffffffffffffffffffffffff021916908373ffffffffffffffffffffffffffffffffffffffff160217905550808273ffffffffffffffffffffffffffffffffffffffff1661142b83610943565b73ffffffffffffffffffffffffffffffffffffffff167f8c5be1e5ebec7d5bd14f71427d1e84f3dd0314c0f7b2291e5b200ac8c7c3b92560405160405180910390a45050565b60008061147d83610943565b90508073ffffffffffffffffffffffffffffffffffffffff168473ffffffffffffffffffffffffffffffffffffffff1614806114bf57506114be8185610e2f565b5b806114fd57508373ffffffffffffffffffffffffffffffffffffffff166114e584610641565b73ffffffffffffffffffffffffffffffffffffffff16145b91505092915050565b8273ffffffffffffffffffffffffffffffffffffffff1661152682610943565b73ffffffffffffffffffffffffffffffffffffffff161461157c576040517f08c379a000000000000000000000000000000000000000000000000000000000815260040161157390613dde565b60405180910390fd5b600073ffffffffffffffffffffffffffffffffffffffff168273ffffffffffffffffffffffffffffffffffffffff1614156115ec576040517f08c379a00000000000000000000000000000000000000000000000000000000081526004016115e390613e70565b60405180910390fd5b6115f783838361236d565b6116026000826113b8565b6001600360008573ffffffffffffffffffffffffffffffffffffffff1673ffffffffffffffffffffffffffffffffffffffff16815260200190815260200160002060008282546116529190613e90565b925050819055506001600360008473ffffffffffffffffffffffffffffffffffffffff1673ffffffffffffffffffffffffffffffffffffffff16815260200190815260200160002060008282546116a99190613ec4565b92505081905550816002600083815260200190815260200160002060006101000a81548173ffffffffffffffffffffffffffffffffffffffff021916908373ffffffffffffffffffffffffffffffffffffffff160217905550808273ffffffffffffffffffffffffffffffffffffffff168473ffffffffffffffffffffffffffffffffffffffff167fddf252ad1be2c89b69c2b068fc378daa952ba7f163c4a11628f55a4df523b3ef60405160405180910390a4611768838383612372565b505050565b61177e816117796113b0565b612377565b50565b61178b8282610aeb565b61185e5760016007600084815260200190815260200160002060000160008373ffffffffffffffffffffffffffffffffffffffff1673ffffffffffffffffffffffffffffffffffffffff16815260200190815260200160002060006101000a81548160ff0219169083151502179055506118036113b0565b73ffffffffffffffffffffffffffffffffffffffff168173ffffffffffffffffffffffffffffffffffffffff16837f2f8788117e7eff1d82e926ec794901d17c78024a50270940304540a733656f0d60405160405180910390a45b5050565b61186c8282610aeb565b156119405760006007600084815260200190815260200160002060000160008373ffffffffffffffffffffffffffffffffffffffff1673ffffffffffffffffffffffffffffffffffffffff16815260200190815260200160002060006101000a81548160ff0219169083151502179055506118e56113b0565b73ffffffffffffffffffffffffffffffffffffffff168173ffffffffffffffffffffffffffffffffffffffff16837ff6391f5c32d9c69d2a47ea670b442974b53935d1edc7fd64eb21e047a839171b60405160405180910390a45b5050565b61194c6113b0565b73ffffffffffffffffffffffffffffffffffffffff1661196a610ac1565b73ffffffffffffffffffffffffffffffffffffffff16146119c0576040517f08c379a00000000000000000000000000000000000000000000000000000000081526004016119b790613f66565b60405180910390fd5b565b6000600860009054906101000a900473ffffffffffffffffffffffffffffffffffffffff16905081600860006101000a81548173ffffffffffffffffffffffffffffffffffffffff021916908373ffffffffffffffffffffffffffffffffffffffff1602179055508173ffffffffffffffffffffffffffffffffffffffff168173ffffffffffffffffffffffffffffffffffffffff167f8be0079c531659141344cd1fd0a4f28419497f9722a3daafe3b4186f6b6457e060405160405180910390a35050565b8173ffffffffffffffffffffffffffffffffffffffff168373ffffffffffffffffffffffffffffffffffffffff161415611af7576040517f08c379a0000000000000000000000000000000000000000000000000000000008152600401611aee90613fd2565b60405180910390fd5b80600560008573ffffffffffffffffffffffffffffffffffffffff1673ffffffffffffffffffffffffffffffffffffffff16815260200190815260200160002060008473ffffffffffffffffffffffffffffffffffffffff1673ffffffffffffffffffffffffffffffffffffffff16815260200190815260200160002060006101000a81548160ff0219169083151502179055508173ffffffffffffffffffffffffffffffffffffffff168373ffffffffffffffffffffffffffffffffffffffff167f17307eab39ab6107e8899845ad3d59bd9653f200f220920489ca2b5937696c3183604051611be89190612c5f565b60405180910390a3505050565b611c00848484611506565b611c0c84848484612414565b611c4b576040517f08c379a0000000000000000000000000000000000000000000000000000000008152600401611c4290614064565b60405180910390fd5b50505050565b606060405180602001604052806000815250905090565b6060611c7382611365565b6000611c7d611c51565b90506000815111611c9d5760405180602001604052806000815250611cc8565b80611ca78461259c565b604051602001611cb89291906138c0565b6040516020818303038152906040525b915050919050565b611cea8282604051806020016040528060008152506126fd565b5050565b611cf782612301565b611d36576040517f08c379a0000000000000000000000000000000000000000000000000000000008152600401611d2d906140f6565b60405180910390fd5b80600660008481526020019081526020016000209080519060200190611d5d929190612b08565b505050565b606060006002836002611d759190614116565b611d7f9190613ec4565b67ffffffffffffffff811115611d9857611d97612e65565b5b6040519080825280601f01601f191660200182016040528015611dca5781602001600182028036833780820191505090505b5090507f300000000000000000000000000000000000000000000000000000000000000081600081518110611e0257611e01614170565b5b60200101907effffffffffffffffffffffffffffffffffffffffffffffffffffffffffffff1916908160001a9053507f780000000000000000000000000000000000000000000000000000000000000081600181518110611e6657611e65614170565b5b60200101907effffffffffffffffffffffffffffffffffffffffffffffffffffffffffffff1916908160001a90535060006001846002611ea69190614116565b611eb09190613ec4565b90505b6001811115611f50577f3031323334353637383961626364656600000000000000000000000000000000600f861660108110611ef257611ef1614170565b5b1a60f81b828281518110611f0957611f08614170565b5b60200101907effffffffffffffffffffffffffffffffffffffffffffffffffffffffffffff1916908160001a905350600485901c945080611f499061419f565b9050611eb3565b5060008414611f94576040517f08c379a0000000000000000000000000000000000000000000000000000000008152600401611f8b90614215565b60405180910390fd5b8091505092915050565b60008151905060006a636f6e736f6c652e6c6f679050602083016000808483855afa5050505050565b6000806041835114156120095760008060006020860151925060408601519150606086015160001a9050611ffd87828585612758565b94509450505050612043565b60408351141561203a57600080602085015191506040850151905061202f868383612865565b935093505050612043565b60006002915091505b9250929050565b6000600481111561205e5761205d614235565b5b81600481111561207157612070614235565b5b141561207c5761221c565b600160048111156120905761208f614235565b5b8160048111156120a3576120a2614235565b5b14156120e4576040517f08c379a00000000000000000000000000000000000000000000000000000000081526004016120db906142b0565b60405180910390fd5b600260048111156120f8576120f7614235565b5b81600481111561210b5761210a614235565b5b141561214c576040517f08c379a00000000000000000000000000000000000000000000000000000000081526004016121439061431c565b60405180910390fd5b600360048111156121605761215f614235565b5b81600481111561217357612172614235565b5b14156121b4576040517f08c379a00000000000000000000000000000000000000000000000000000000081526004016121ab906143ae565b60405180910390fd5b6004808111156121c7576121c6614235565b5b8160048111156121da576121d9614235565b5b141561221b576040517f08c379a000000000000000000000000000000000000000000000000000000000815260040161221290614440565b60405180910390fd5b5b50565b60007f80ac58cd000000000000000000000000000000000000000000000000000000007bffffffffffffffffffffffffffffffffffffffffffffffffffffffff1916827bffffffffffffffffffffffffffffffffffffffffffffffffffffffff191614806122ea57507f5b5e139f000000000000000000000000000000000000000000000000000000007bffffffffffffffffffffffffffffffffffffffffffffffffffffffff1916827bffffffffffffffffffffffffffffffffffffffffffffffffffffffff1916145b806122fa57506122f9826128c4565b5b9050919050565b60008073ffffffffffffffffffffffffffffffffffffffff166002600084815260200190815260200160002060009054906101000a900473ffffffffffffffffffffffffffffffffffffffff1673ffffffffffffffffffffffffffffffffffffffff1614159050919050565b505050565b505050565b6123818282610aeb565b612410576123a68173ffffffffffffffffffffffffffffffffffffffff166014611d62565b6123b48360001c6020611d62565b6040516020016123c59291906144f8565b6040516020818303038152906040526040517f08c379a00000000000000000000000000000000000000000000000000000000081526004016124079190612d13565b60405180910390fd5b5050565b60006124358473ffffffffffffffffffffffffffffffffffffffff166112c8565b1561258f578373ffffffffffffffffffffffffffffffffffffffff1663150b7a0261245e6113b0565b8786866040518563ffffffff1660e01b81526004016124809493929190614587565b6020604051808303816000875af19250505080156124bc57506040513d601f19601f820116820180604052508101906124b991906145e8565b60015b61253f573d80600081146124ec576040519150601f19603f3d011682016040523d82523d6000602084013e6124f1565b606091505b50600081511415612537576040517f08c379a000000000000000000000000000000000000000000000000000000000815260040161252e90614064565b60405180910390fd5b805181602001fd5b63150b7a0260e01b7bffffffffffffffffffffffffffffffffffffffffffffffffffffffff1916817bffffffffffffffffffffffffffffffffffffffffffffffffffffffff191614915050612594565b600190505b949350505050565b606060008214156125e4576040518060400160405280600181526020017f300000000000000000000000000000000000000000000000000000000000000081525090506126f8565b600082905060005b600082146126165780806125ff90613c59565b915050600a8261260f9190614644565b91506125ec565b60008167ffffffffffffffff81111561263257612631612e65565b5b6040519080825280601f01601f1916602001820160405280156126645781602001600182028036833780820191505090505b5090505b600085146126f15760018261267d9190613e90565b9150600a8561268c9190614675565b60306126989190613ec4565b60f81b8183815181106126ae576126ad614170565b5b60200101907effffffffffffffffffffffffffffffffffffffffffffffffffffffffffffff1916908160001a905350600a856126ea9190614644565b9450612668565b8093505050505b919050565b612707838361292e565b6127146000848484612414565b612753576040517f08c379a000000000000000000000000000000000000000000000000000000000815260040161274a90614064565b60405180910390fd5b505050565b6000807f7fffffffffffffffffffffffffffffff5d576e7357a4501ddfe92f46681b20a08360001c111561279357600060039150915061285c565b601b8560ff16141580156127ab5750601c8560ff1614155b156127bd57600060049150915061285c565b6000600187878787604051600081526020016040526040516127e294939291906146c2565b6020604051602081039080840390855afa158015612804573d6000803e3d6000fd5b505050602060405103519050600073ffffffffffffffffffffffffffffffffffffffff168173ffffffffffffffffffffffffffffffffffffffff1614156128535760006001925092505061285c565b80600092509250505b94509492505050565b60008060007f7fffffffffffffffffffffffffffffffffffffffffffffffffffffffffffffff60001b841690506000601b60ff8660001c901c6128a89190613ec4565b90506128b687828885612758565b935093505050935093915050565b60007f01ffc9a7000000000000000000000000000000000000000000000000000000007bffffffffffffffffffffffffffffffffffffffffffffffffffffffff1916827bffffffffffffffffffffffffffffffffffffffffffffffffffffffff1916149050919050565b600073ffffffffffffffffffffffffffffffffffffffff168273ffffffffffffffffffffffffffffffffffffffff16141561299e576040517f08c379a000000000000000000000000000000000000000000000000000000000815260040161299590614753565b60405180910390fd5b6129a781612301565b156129e7576040517f08c379a00000000000000000000000000000000000000000000000000000000081526004016129de906147bf565b60405180910390fd5b6129f36000838361236d565b6001600360008473ffffffffffffffffffffffffffffffffffffffff1673ffffffffffffffffffffffffffffffffffffffff1681526020019081526020016000206000828254612a439190613ec4565b92505081905550816002600083815260200190815260200160002060006101000a81548173ffffffffffffffffffffffffffffffffffffffff021916908373ffffffffffffffffffffffffffffffffffffffff160217905550808273ffffffffffffffffffffffffffffffffffffffff16600073ffffffffffffffffffffffffffffffffffffffff167fddf252ad1be2c89b69c2b068fc378daa952ba7f163c4a11628f55a4df523b3ef60405160405180910390a4612b0460008383612372565b5050565b828054612b149061346a565b90600052602060002090601f016020900481019282612b365760008555612b7d565b82601f10612b4f57805160ff1916838001178555612b7d565b82800160010185558215612b7d579182015b82811115612b7c578251825591602001919060010190612b61565b5b509050612b8a9190612b8e565b5090565b5b80821115612ba7576000816000905550600101612b8f565b5090565b6000604051905090565b600080fd5b600080fd5b60007fffffffff0000000000000000000000000000000000000000000000000000000082169050919050565b612bf481612bbf565b8114612bff57600080fd5b50565b600081359050612c1181612beb565b92915050565b600060208284031215612c2d57612c2c612bb5565b5b6000612c3b84828501612c02565b91505092915050565b60008115159050919050565b612c5981612c44565b82525050565b6000602082019050612c746000830184612c50565b92915050565b600081519050919050565b600082825260208201905092915050565b60005b83811015612cb4578082015181840152602081019050612c99565b83811115612cc3576000848401525b50505050565b6000601f19601f8301169050919050565b6000612ce582612c7a565b612cef8185612c85565b9350612cff818560208601612c96565b612d0881612cc9565b840191505092915050565b60006020820190508181036000830152612d2d8184612cda565b905092915050565b6000819050919050565b612d4881612d35565b8114612d5357600080fd5b50565b600081359050612d6581612d3f565b92915050565b600060208284031215612d8157612d80612bb5565b5b6000612d8f84828501612d56565b91505092915050565b600073ffffffffffffffffffffffffffffffffffffffff82169050919050565b6000612dc382612d98565b9050919050565b612dd381612db8565b82525050565b6000602082019050612dee6000830184612dca565b92915050565b612dfd81612db8565b8114612e0857600080fd5b50565b600081359050612e1a81612df4565b92915050565b60008060408385031215612e3757612e36612bb5565b5b6000612e4585828601612e0b565b9250506020612e5685828601612d56565b9150509250929050565b600080fd5b7f4e487b7100000000000000000000000000000000000000000000000000000000600052604160045260246000fd5b612e9d82612cc9565b810181811067ffffffffffffffff82111715612ebc57612ebb612e65565b5b80604052505050565b6000612ecf612bab565b9050612edb8282612e94565b919050565b600080fd5b600080fd5b600080fd5b600067ffffffffffffffff821115612f0a57612f09612e65565b5b612f1382612cc9565b9050602081019050919050565b82818337600083830152505050565b6000612f42612f3d84612eef565b612ec5565b905082815260208101848484011115612f5e57612f5d612eea565b5b612f69848285612f20565b509392505050565b600082601f830112612f8657612f85612ee5565b5b8135612f96848260208601612f2f565b91505092915050565b600067ffffffffffffffff821115612fba57612fb9612e65565b5b612fc382612cc9565b9050602081019050919050565b6000612fe3612fde84612f9f565b612ec5565b905082815260208101848484011115612fff57612ffe612eea565b5b61300a848285612f20565b509392505050565b600082601f83011261302757613026612ee5565b5b8135613037848260208601612fd0565b91505092915050565b60006080828403121561305657613055612e60565b5b6130606080612ec5565b9050600061307084828501612e0b565b600083015250602082013567ffffffffffffffff81111561309457613093612ee0565b5b6130a084828501612f71565b60208301525060406130b484828501612d56565b604083015250606082013567ffffffffffffffff8111156130d8576130d7612ee0565b5b6130e484828501613012565b60608301525092915050565b60006020828403121561310657613105612bb5565b5b600082013567ffffffffffffffff81111561312457613123612bba565b5b61313084828501613040565b91505092915050565b60008060006060848603121561315257613151612bb5565b5b600061316086828701612e0b565b935050602061317186828701612e0b565b925050604061318286828701612d56565b9150509250925092565b6000819050919050565b61319f8161318c565b81146131aa57600080fd5b50565b6000813590506131bc81613196565b92915050565b6000602082840312156131d8576131d7612bb5565b5b60006131e6848285016131ad565b91505092915050565b6131f88161318c565b82525050565b600060208201905061321360008301846131ef565b92915050565b600080604083850312156132305761322f612bb5565b5b600061323e858286016131ad565b925050602061324f85828601612e0b565b9150509250929050565b60006020828403121561326f5761326e612bb5565b5b600061327d84828501612e0b565b91505092915050565b61328f81612d35565b82525050565b60006020820190506132aa6000830184613286565b92915050565b6132b981612c44565b81146132c457600080fd5b50565b6000813590506132d6816132b0565b92915050565b600080604083850312156132f3576132f2612bb5565b5b600061330185828601612e0b565b9250506020613312858286016132c7565b9150509250929050565b6000806000806080858703121561333657613335612bb5565b5b600061334487828801612e0b565b945050602061335587828801612e0b565b935050604061336687828801612d56565b925050606085013567ffffffffffffffff81111561338757613386612bba565b5b61339387828801613012565b91505092959194509250565b600080604083850312156133b6576133b5612bb5565b5b60006133c485828601612e0b565b92505060206133d585828601612e0b565b9150509250929050565b600080604083850312156133f6576133f5612bb5565b5b600061340485828601612e0b565b925050602083013567ffffffffffffffff81111561342557613424612bba565b5b61343185828601613040565b9150509250929050565b7f4e487b7100000000000000000000000000000000000000000000000000000000600052602260045260246000fd5b6000600282049050600182168061348257607f821691505b602082108114156134965761349561343b565b5b50919050565b7f4552433732313a20617070726f76616c20746f2063757272656e74206f776e6560008201527f7200000000000000000000000000000000000000000000000000000000000000602082015250565b60006134f8602183612c85565b91506135038261349c565b604082019050919050565b60006020820190508181036000830152613527816134eb565b9050919050565b7f4552433732313a20617070726f76652063616c6c6572206973206e6f7420746f60008201527f6b656e206f776e6572206e6f7220617070726f76656420666f7220616c6c0000602082015250565b600061358a603e83612c85565b91506135958261352e565b604082019050919050565b600060208201905081810360008301526135b98161357d565b9050919050565b60008160601b9050919050565b60006135d8826135c0565b9050919050565b60006135ea826135cd565b9050919050565b6136026135fd82612db8565b6135df565b82525050565b600081905092915050565b600061361e82612c7a565b6136288185613608565b9350613638818560208601612c96565b80840191505092915050565b6000819050919050565b61365f61365a82612d35565b613644565b82525050565b600061367182866135f1565b6014820191506136818285613613565b915061368d828461364e565b602082019150819050949350505050565b7f4552433732313a2063616c6c6572206973206e6f7420746f6b656e206f776e6560008201527f72206e6f7220617070726f766564000000000000000000000000000000000000602082015250565b60006136fa602e83612c85565b91506137058261369e565b604082019050919050565b60006020820190508181036000830152613729816136ed565b9050919050565b7f416363657373436f6e74726f6c3a2063616e206f6e6c792072656e6f756e636560008201527f20726f6c657320666f722073656c660000000000000000000000000000000000602082015250565b600061378c602f83612c85565b915061379782613730565b604082019050919050565b600060208201905081810360008301526137bb8161377f565b9050919050565b7f4552433732313a20696e76616c696420746f6b656e2049440000000000000000600082015250565b60006137f8601883612c85565b9150613803826137c2565b602082019050919050565b60006020820190508181036000830152613827816137eb565b9050919050565b7f4552433732313a2061646472657373207a65726f206973206e6f74206120766160008201527f6c6964206f776e65720000000000000000000000000000000000000000000000602082015250565b600061388a602983612c85565b91506138958261382e565b604082019050919050565b600060208201905081810360008301526138b98161387d565b9050919050565b60006138cc8285613613565b91506138d88284613613565b91508190509392505050565b7f546865206f70657261746f72206d75737420626520746865206465737472756360008201527f746f722100000000000000000000000000000000000000000000000000000000602082015250565b6000613940602483612c85565b915061394b826138e4565b604082019050919050565b6000602082019050818103600083015261396f81613933565b9050919050565b7f4f776e61626c653a206e6577206f776e657220697320746865207a65726f206160008201527f6464726573730000000000000000000000000000000000000000000000000000602082015250565b60006139d2602683612c85565b91506139dd82613976565b604082019050919050565b60006020820190508181036000830152613a01816139c5565b9050919050565b7f5369676e617475726520696e76616c6964206f7220756e617574686f72697a6560008201527f6421000000000000000000000000000000000000000000000000000000000000602082015250565b6000613a64602283612c85565b9150613a6f82613a08565b604082019050919050565b60006020820190508181036000830152613a9381613a57565b9050919050565b7f496e76616c696420726563697069656e74210000000000000000000000000000600082015250565b6000613ad0601283612c85565b9150613adb82613a9a565b602082019050919050565b60006020820190508181036000830152613aff81613ac3565b9050919050565b7f506c65617365207265717565737420696e7669746174696f6e7320696e20736560008201527f7175656e63652e00000000000000000000000000000000000000000000000000602082015250565b6000613b62602783612c85565b9150613b6d82613b06565b604082019050919050565b60006020820190508181036000830152613b9181613b55565b9050919050565b7f416c6c20696e7669746174696f6e732068617665206265656e2061776172646560008201527f6421000000000000000000000000000000000000000000000000000000000000602082015250565b6000613bf4602283612c85565b9150613bff82613b98565b604082019050919050565b60006020820190508181036000830152613c2381613be7565b9050919050565b7f4e487b7100000000000000000000000000000000000000000000000000000000600052601160045260246000fd5b6000613c6482612d35565b91507fffffffffffffffffffffffffffffffffffffffffffffffffffffffffffffffff821415613c9757613c96613c2a565b5b600182019050919050565b60006040820190508181036000830152613cbc8185612cda565b90508181036020830152613cd08184612cda565b90509392505050565b7f19457468657265756d205369676e6564204d6573736167653a0a333200000000600082015250565b6000613d0f601c83613608565b9150613d1a82613cd9565b601c82019050919050565b6000819050919050565b613d40613d3b8261318c565b613d25565b82525050565b6000613d5182613d02565b9150613d5d8284613d2f565b60208201915081905092915050565b7f4552433732313a207472616e736665722066726f6d20696e636f72726563742060008201527f6f776e6572000000000000000000000000000000000000000000000000000000602082015250565b6000613dc8602583612c85565b9150613dd382613d6c565b604082019050919050565b60006020820190508181036000830152613df781613dbb565b9050919050565b7f4552433732313a207472616e7366657220746f20746865207a65726f2061646460008201527f7265737300000000000000000000000000000000000000000000000000000000602082015250565b6000613e5a602483612c85565b9150613e6582613dfe565b604082019050919050565b60006020820190508181036000830152613e8981613e4d565b9050919050565b6000613e9b82612d35565b9150613ea683612d35565b925082821015613eb957613eb8613c2a565b5b828203905092915050565b6000613ecf82612d35565b9150613eda83612d35565b9250827fffffffffffffffffffffffffffffffffffffffffffffffffffffffffffffffff03821115613f0f57613f0e613c2a565b5b828201905092915050565b7f4f776e61626c653a2063616c6c6572206973206e6f7420746865206f776e6572600082015250565b6000613f50602083612c85565b9150613f5b82613f1a565b602082019050919050565b60006020820190508181036000830152613f7f81613f43565b9050919050565b7f4552433732313a20617070726f766520746f2063616c6c657200000000000000600082015250565b6000613fbc601983612c85565b9150613fc782613f86565b602082019050919050565b60006020820190508181036000830152613feb81613faf565b9050919050565b7f4552433732313a207472616e7366657220746f206e6f6e20455243373231526560008201527f63656976657220696d706c656d656e7465720000000000000000000000000000602082015250565b600061404e603283612c85565b915061405982613ff2565b604082019050919050565b6000602082019050818103600083015261407d81614041565b9050919050565b7f45524337323155524953746f726167653a2055524920736574206f66206e6f6e60008201527f6578697374656e7420746f6b656e000000000000000000000000000000000000602082015250565b60006140e0602e83612c85565b91506140eb82614084565b604082019050919050565b6000602082019050818103600083015261410f816140d3565b9050919050565b600061412182612d35565b915061412c83612d35565b9250817fffffffffffffffffffffffffffffffffffffffffffffffffffffffffffffffff048311821515161561416557614164613c2a565b5b828202905092915050565b7f4e487b7100000000000000000000000000000000000000000000000000000000600052603260045260246000fd5b60006141aa82612d35565b915060008214156141be576141bd613c2a565b5b600182039050919050565b7f537472696e67733a20686578206c656e67746820696e73756666696369656e74600082015250565b60006141ff602083612c85565b915061420a826141c9565b602082019050919050565b6000602082019050818103600083015261422e816141f2565b9050919050565b7f4e487b7100000000000000000000000000000000000000000000000000000000600052602160045260246000fd5b7f45434453413a20696e76616c6964207369676e61747572650000000000000000600082015250565b600061429a601883612c85565b91506142a582614264565b602082019050919050565b600060208201905081810360008301526142c98161428d565b9050919050565b7f45434453413a20696e76616c6964207369676e6174757265206c656e67746800600082015250565b6000614306601f83612c85565b9150614311826142d0565b602082019050919050565b60006020820190508181036000830152614335816142f9565b9050919050565b7f45434453413a20696e76616c6964207369676e6174757265202773272076616c60008201527f7565000000000000000000000000000000000000000000000000000000000000602082015250565b6000614398602283612c85565b91506143a38261433c565b604082019050919050565b600060208201905081810360008301526143c78161438b565b9050919050565b7f45434453413a20696e76616c6964207369676e6174757265202776272076616c60008201527f7565000000000000000000000000000000000000000000000000000000000000602082015250565b600061442a602283612c85565b9150614435826143ce565b604082019050919050565b600060208201905081810360008301526144598161441d565b9050919050565b7f416363657373436f6e74726f6c3a206163636f756e7420000000000000000000600082015250565b6000614496601783613608565b91506144a182614460565b601782019050919050565b7f206973206d697373696e6720726f6c6520000000000000000000000000000000600082015250565b60006144e2601183613608565b91506144ed826144ac565b601182019050919050565b600061450382614489565b915061450f8285613613565b915061451a826144d5565b91506145268284613613565b91508190509392505050565b600081519050919050565b600082825260208201905092915050565b600061455982614532565b614563818561453d565b9350614573818560208601612c96565b61457c81612cc9565b840191505092915050565b600060808201905061459c6000830187612dca565b6145a96020830186612dca565b6145b66040830185613286565b81810360608301526145c8818461454e565b905095945050505050565b6000815190506145e281612beb565b92915050565b6000602082840312156145fe576145fd612bb5565b5b600061460c848285016145d3565b91505092915050565b7f4e487b7100000000000000000000000000000000000000000000000000000000600052601260045260246000fd5b600061464f82612d35565b915061465a83612d35565b92508261466a57614669614615565b5b828204905092915050565b600061468082612d35565b915061468b83612d35565b92508261469b5761469a614615565b5b828206905092915050565b600060ff82169050919050565b6146bc816146a6565b82525050565b60006080820190506146d760008301876131ef565b6146e460208301866146b3565b6146f160408301856131ef565b6146fe60608301846131ef565b95945050505050565b7f4552433732313a206d696e7420746f20746865207a65726f2061646472657373600082015250565b600061473d602083612c85565b915061474882614707565b602082019050919050565b6000602082019050818103600083015261476c81614730565b9050919050565b7f4552433732313a20746f6b656e20616c7265616479206d696e74656400000000600082015250565b60006147a9601c83612c85565b91506147b482614773565b602082019050919050565b600060208201905081810360008301526147d88161479c565b905091905056fea2646970667358221220db65ef8853a2b8a7138f53c25c89ea7ee7802e85bb0a43c0935ca9ed94eb059c64736f6c634300080c0033",
    "linkReferences": {},
    "deployedLinkReferences": {}
}